:040000005AEF00F0C3
:060008004682A8ED0CF099
:100018004680D8CFD3F0E8CFD4F0E0CFD5F0FACFF0
:10002800D6F0FBCFD7F0E9CFD8F0EACFD9F0E1CFBF
:10003800DAF0E2CFDBF0D9CFDCF0DACFDDF0F3CFC6
:10004800DEF0F4CFDFF0F6CFE0F0F7CFE1F0F8CF55
:10005800E2F0F5CFE3F09EAA05D004EC10F0C2EC74
:1000680005F09E9AE3C0F5FFE2C0F8FFE1C0F7FF94
:10007800E0C0F6FFDFC0F4FFDEC0F3FFDDC0DAFF4B
:10008800DCC0D9FFDBC0E2FFDAC0E1FFD9C0EAFF7C
:10009800D8C0E9FFD7C0FBFFD6C0FAFFD5C0E0FF44
:1000A800D4C0E8FFD3C0D8FF4690100075EF0EF01B
:100800000001000A006400E8031027010010000046
:100810000100103031323334353637383961626394
:1008200064656600696E6974005343410053544126
:1008300000524742005B415D005B425D005B4D5DE5
:1008400000464100464C00534D00535400256400BF
:1008500025780044004700490050005200530055DD
:1008600000240026003A000023C100F124C101F158
:100870005B0E0101026F080E0101036F01EC0FF026
:100880000101005101010111D8A411D025C100F1CD
:1008900026C101F1A4EC0EF00001806F7FC005F1CC
:1008A0007EC006F1000180517FEC10F0120023C1E0
:1008B00000F124C101F1550E0101026F080E010182
:1008C000036F01EC0FF00101005101010111D8A4E7
:1008D00011D025C100F126C101F1A4EC0EF00001F8
:1008E0007F6F7FC005F17EC006F1000180517FEC73
:1008F00010F0120023C100F124C101F1330E0101F7
:10090000026F080E0101036F01EC0FF001010051AD
:1009100001010111D8A411D025C100F126C101F1B6
:10092000A4EC0EF000017E6F7FC005F17EC006F1E1
:10093000000180517FEC10F0120023C100F124C1AE
:1009400001F15D0E0101026F080E0101036F01EC60
:100950000FF00101005101010111D8A428D025C1D7
:1009600000F126C101F1530E0101026F080E0101D1
:10097000036F01EC0FF00101005101010111D8B426
:10098000B7EC10F025C100F126C101F15F0E0101A5
:10099000026F080E0101036F01EC0FF0010100511D
:1009A00001010111D8A41200B2EC10F0120023C111
:1009B00000F124C101F1440E0101026F080E010192
:1009C000036F01EC0FF00101005101010111D8A4E6
:1009D00003D0D0EC10F0120023C100F124C101F1CA
:1009E0004A0E0101026F080E0101036F01EC0FF0C6
:1009F0000101005101010111D8A403D0C1EC10F094
:100A0000120023C100F124C101F1410E0101026F66
:100A1000080E0101036F01EC0FF00101005101010B
:100A20000111D8A403D0D3EC10F0120023C100F1BF
:100A300024C101F1470E0101026F080E0101036F8D
:100A400001EC0FF00101005101010111D8A403D004
:100A5000C4EC10F0120023C100F124C101F1310EE9
:100A60000101026F080E0101036F01EC0FF001019B
:100A7000005101010111D8A43DD05B0E01011C6F92
:100A8000080E01011D6FC7EC10F00101276F010175
:100A9000275101011E6F1F6B1DEC0AF0280EE82E76
:100AA000FED7550E01011C6F080E01011D6FCAEC27
:100AB00010F00101276F0101275101011E6F1F6B0B
:100AC0001DEC0AF0280EE82EFED7330E01011C6F34
:100AD000080E01011D6FCDEC10F00101276F01011F
:100AE000275101011E6F1F6B1DEC0AF0280EE82E26
:100AF000FED7120023C100F124C101F1290E01012A
:100B0000026F080E0101036F01EC0FF001010051AB
:100B100001010111D8A412D0290E01011C6F080E89
:100B200001011D6FDBEC10F00101276F010127515E
:100B300001011E6F1F6B1DEC0AF0120023C100F1B2
:100B400024C101F12D0E0101026F080E0101036F96
:100B500001EC0FF00101005101010111D8A41200B4
:100B60002D0E01011C6F080E01011D6FD9EC10F054
:100B70000101276F0101275101011E6F1F6B1DEC41
:100B80000AF012000001D26F4CD1260E0001D219DA
:100B9000D8A41AD0000E0001836F000E0001846FEC
:100BA000000E2D6E000E00018A6F000E2E6E000EDC
:100BB0000001656F000E0001706F000E00017D6F77
:100BC000010E0001BF6F1200000E0001BF6F120086
:100BD0003A0E0001D219D8A40FD0020E0001BF6F47
:100BE00000018351010D810EF324D96E000EF42013
:100BF000DA6E000EDF6E120000018351010D810ECE
:100C0000F324D96E000EF420DA6ED2C0DFFF0001AB
:100C1000832B0A0E000183651200000E0001836F12
:100C200012003A0E0001D219D8A40FD0030E000111
:100C3000BF6F00018A51010D850EF324D96E000E9D
:100C4000F420DA6E000EDF6E120000018A51010DF1
:100C5000850EF324D96E000EF420DA6ED2C0DFFFC9
:100C600000018A2B320E00018A651200000E00017D
:100C70008A6F12003A0E0001D219D8A40FD0040EC8
:100C80000001BF6F00018A51010D850EF324D96E5A
:100C9000000EF420DA6E000EDF6E12000001D25159
:100CA000D00F0001846F0001D251D00F2D6E1200C1
:100CB0003A0E0001D219D8A40FD0050E0001BF6F63
:100CC00000016551010D600EF324D96E000EF42071
:100CD000DA6E000EDF6E120000016551010D600E2C
:100CE000F324D96E000EF420DA6ED2C0DFFF0001CB
:100CF000652B320E000165651200000E0001656F64
:100D000012003A0E0001D219D8A45ED00001705131
:100D1000010D660EF324D96E000EF420DA6E000E7B
:100D2000DF6E20EE60F02E50110D8B0EF324E16E7D
:100D3000000EF420E26E100EDBCFE3FFE806FCE2CB
:100D4000000E0001D16F000E0001D16F0DD0000127
:100D5000D151010D600EF324D96E000EF420DA6E2D
:100D6000000EDF6E0001D12B000165510001D15D45
:100D7000D8A0EDD7000E0001D16F0DD00001D151E8
:100D8000010D660EF324D96E000EF420DA6E000E0B
:100D9000DF6E0001D12B000170510001D15DD8A0A0
:100DA000EDD7000E0001656F000E0001706F2D067B
:100DB0002E2A2D50D8A404D0060E0001BF6F1200B9
:100DC000040E0001BF6F120000017051010D660E8C
:100DD000F324D96E000EF420DA6ED2C0DFFF0001DA
:100DE000702B320E000170651200000E0001706F52
:100DF0001200240E0001D219D8A409D0A4EC0DF0E1
:100E0000000E0001BF6F010E00017D6F1200000196
:100E1000D251D00F0001BE6F1200000E0001BF6F53
:100E200012000001BF51000AD8B4AFD6010AD8B4ED
:100E3000CFD6030AD8B4F5D6010AD8B41BD7070A0F
:100E4000D8B436D7010AD8B45CD7030AD8B4D1D7FE
:100E5000E4D70F0E0101156F010E0101166F15D1B8
:100E6000250E01011B19D8B405D001011B51A6ECB8
:100E700010F00BD1000E0101186F08D00101188F7E
:100E800028D001011B51A6EC10F0FFD00CC111F1CC
:100E90000DC112F10EC113F101010C2B000E0D2337
:100EA0000E2311C1F6FF12C1F7FF13C1F8FF0800AE
:100EB000F5CF1BF101011B51000AD8B41200640ADE
:100EC000D8B407D00D0AD8B404D0110AD8B4D6D7F4
:100ED000D8D7010118BF19D015C1D9FF16C1DAFF43
:100EE000DECF19F1DDCF1AF1020E01011527000E38
:100EF000162301011AAF53D0030E0101181301018B
:100F0000196D1A1FD8B01A2B4AD015C1D9FF16C1B6
:100F1000DAFFDECF19F1DDCF1AF1020E010115273C
:100F2000000E16233CD0010E01011B6F050E0101BE
:100F30001B19D8B43DD001011B51020D010EF32441
:100F4000F66E080EF420F76E0900F5500101195DE8
:100F50000900F55001011A59D8A02AD001011B2B14
:100F6000E5D7010E01011B6F040E01011B19D8B456
:100F70001FD001011B51020D0B0EF324F66E080E5B
:100F8000F420F76E0900F5500101195D0900F550D4
:100F900001011A59D8A00CD001011B2BE5D7010182
:100FA0001851800B000AD8B4BED7800AD8B4D9D75C
:100FB00018C111F1030E01011117D8B403D02D0E81
:100FC000A6EC10F01BC117F15AD001011751020D08
:100FD000010EF324F66E080EF420F76E0900F5CF2B
:100FE00002F10A00F5CF03F119C100F11AC101F1B4
:100FF00068EC0DF000C107F101C108F1000E01011C
:101000000A6F0A0E096F44EC0EF001010751300F10
:1010100001011B6F30D019C100F11AC101F10101AA
:101020001751020D0B0EF324F66E080EF420F76E26
:101030000900F5CF02F10A00F5CF03F168EC0DF0DD
:10104000010100510F0B0101146F01011451010D39
:10105000130EF324F66E080EF420F76E0800F5CF99
:101060001BF109D001011851800B000AD8B4ADD78B
:10107000800AD8B4D0D701011B51A6EC10F00101B1
:10108000170701011729D8A4EDD70CC111F10DC123
:1010900012F10EC113F101010C2B000E0D230E23D2
:1010A00011C1F6FF12C1F7FF13C1F8FF0800F5CF19
:1010B0001BF101011B51D8B41200D2D6C40E00019D
:1010C000CA6F000E0001CB6F12D1250E0001D0199E
:1010D000D8B405D00001D051BCEC10F008D1000EFE
:1010E0000001CD6F08D00001CD8F28D00001D05174
:1010F000BCEC10F0FCD0C1C0C6F0C2C0C7F0C3C089
:10110000C8F00001C12B000EC223C323C6C0F6FFE6
:10111000C7C0F7FFC8C0F8FF0800F5CFD0F0000146
:10112000D051000AD8B41200640AD8B407D00D0A0E
:10113000D8B404D0110AD8B4D6D7D8D70001CDBFBF
:1011400019D0CAC0D9FFCBC0DAFFDECFCEF0DDCFD9
:10115000CFF0020E0001CA27000ECB230001CFAF53
:1011600053D0030E0001CD130001CE6DCF1FD8B0B8
:10117000CF2B4AD0CAC0D9FFCBC0DAFFDECFCEF02A
:10118000DDCFCFF0020E0001CA27000ECB233CD0EA
:10119000010E0001D06F050E0001D019D8B43DD06A
:1011A0000001D051020D010EF324F66E080EF4205A
:1011B000F76E0900F5500001CE5D0900F550000101
:1011C000CF59D8A02AD00001D02BE5D7010E0001BD
:1011D000D06F040E0001D019D8B41FD00001D05137
:1011E000020D0B0EF324F66E080EF420F76E0900C4
:1011F000F5500001CE5D0900F5500001CF59D8A08F
:101200000CD00001D02BE5D70001CD51800B000A96
:10121000D8B4BED7800AD8B4D9D7CDC0C6F0030E93
:101220000001C617D8B403D02D0EBCEC10F0D0C00E
:10123000CCF057D00001CC51020D010EF324F66E14
:10124000080EF420F76E0900F5CF1CF00A00F5CF68
:101250001DF0CEC01AF0CFC01BF02DEC0FF01AC05D
:1012600021F01BC022F0000E246E0A0E236E7BECD0
:101270000FF02150300F0001D06F2FD0CEC01AF0E8
:10128000CFC01BF00001CC51020D0B0EF324F66E03
:10129000080EF420F76E0900F5CF1CF00A00F5CF18
:1012A0001DF02DEC0FF01A500F0B0001C96F00015B
:1012B000C951010D130EF324F66E080EF420F76EDB
:1012C0000800F5CFD0F009D00001CD51800B000A05
:1012D000D8B4B0D7800AD8B4D1D70001D051BCEC73
:1012E00010F00001CC070001CC29D8A4EDD7C1C073
:1012F000C6F0C2C0C7F0C3C0C8F00001C12B000EC9
:10130000C223C323C6C0F6FFC7C0F7FFC8C0F8FF9B
:101310000800F5CFD0F00001D051D8B41200D5D6D6
:10132000000E0101096F010107AF0CD00101071F79
:10133000061F051F046D000E052306230723010E5B
:101340000101096F010103AF0CD00101031F021F4E
:10135000011F006D000E012302230323010E010172
:10136000091B000E01010A6F000E0B6F000E0C6FBF
:10137000000E0D6F0101045101010511010106115B
:1013800001010711D8B442D0010E0101086F08D045
:101390000101D89004370537063707370101082BBC
:1013A000010107AFF5D70101D8900A370B370C3789
:1013B0000D37010104510101005D010105510101D9
:1013C00001590101065101010259010107510101B1
:1013D0000359D8A012D0010104510101005F01019D
:1013E00005510101015B010106510101025B01018F
:1013F00007510101035B01010A810101D890073304
:101400000633053304330101082FCDD701010951FB
:101410000101D8B409D001010D1F0C1F0B1F0A6D6B
:10142000000E0B230C230D230AC100F10BC101F1A7
:101430000CC102F10DC103F1120040C00CF141C01A
:101440000DF101010C510D11D8A4000E0E6F29EC05
:1014500007F0E7C00CF1E8C00DF101010C510D11CE
:10146000D8A4000E0E6F29EC07F0E4C00CF1E5C023
:101470000DF1E6C00EF129EC07F0650E01010C6FCD
:10148000080E01010D6F01010C510D11D8A4000EC1
:101490000E6F29EC07F01CC10CF11DC10DF101010B
:1014A0000C510D11D8A4000E0E6F29EC07F0650E3B
:1014B00001010C6F080E01010D6F01010C510D119E
:1014C000D8A4000E0E6F29EC07F04D0E01010C6F31
:1014D000080E01010D6F01010C510D11D8A4000E71
:1014E0000E6F1EC10FF11FC110F129EC07F042C0B1
:1014F0000CF143C00DF101010C510D11D8A4000EE7
:101500000E6F29EC07F0100E0101206F940EE82EEB
:10151000FED7202FFCD700F012002FC006F0FF0EE0
:10152000076E000E086E062A03D008340832073210
:10153000062EFBD73950096E0A6A0750095C0A501B
:10154000800A0B6E0850800A0B58D8A002D0000EFB
:10155000396E3950D8B438D04AD0000E036E000E20
:10156000046EFF0E4FEC10F0010E2CD0FF0E036E38
:10157000000E046EFF0E4FEC10F0020E23D0FF0E93
:10158000036E000E046E000E4FEC10F0030E1AD026
:10159000FF0E036EFF0E046E000E4FEC10F0040EF3
:1015A00011D0000E036EFF0E046E000E4FEC10F013
:1015B000050E08D0000E036EFF0E046EFF0E4FECFA
:1015C00010F0000E386E13D03850000AD8B4C5D7CA
:1015D000010AD8B4CBD7030AD8B4D1D7010AD8B4FA
:1015E000D7D7070AD8B4DDD7010AD8B4E3D7392A48
:1015F000120040C00CF141C00DF101010C510D1160
:10160000D8A4000E0E6F29EC07F0E7C00CF1E8C07B
:101610000DF101010C510D11D8A4000E0E6F29EC33
:1016200007F0E4C00CF1E5C00DF1E6C00EF129ECC5
:1016300007F0650E01010C6F080E01010D6F01012D
:101640000C510D11D8A4000E0E6F29EC07F01CC12F
:101650000CF11DC10DF101010C510D11D8A4000EAA
:101660000E6F29EC07F0650E01010C6F080E0101E9
:101670000D6F01010C510D11D8A4000E0E6F29EC55
:1016800007F01EC10CF11FC10DF101010C510D112C
:10169000D8A4000E0E6F29EC07F042C00CF143C035
:1016A0000DF101010C510D11D8A4000E0E6F29ECA3
:1016B00007F0100E0101206F940EE82EFED7202FA8
:1016C000FCD700F01200949C948E0EC1E4F00FC180
:1016D000E5F00001E451E511D8A4000EE66F000E1C
:1016E00000017D6F000E19EC10F0AC9CAC98AC942E
:1016F000AB9CB89AB898B89610C104F111C105F125
:101700000101066B076B000E0101006F6C0E016F8B
:10171000DC0E026F020E036F90EC09F000C113F1B2
:1017200001C114F102C115F103C116F113C100F199
:1017300014C101F115C102F116C103F1400E0101FE
:10174000046F000E056F000E066F000E076F90EC21
:1017500009F001010005AF6E010112510101D8B479
:101760001200D08EF28EF28C9E9A9F9A9D8A120061
:101770002FC006F0FF0E076E000E086E062A03D07B
:10178000083408320732062EFBD73650096E0A6A33
:101790000750095C0A50800A0B6E0850800A0B58EB
:1017A000D8A002D0000E366E3650D8B426D032D033
:1017B000000E036E000E046EFF0E4FEC10F0010ED3
:1017C0001AD0FF0E036E000E046E000E4FEC10F0E8
:1017D000020E11D0000E036EFF0E046E000E4FECD1
:1017E00010F0030E08D0FF0E036EFF0E046EFF0E06
:1017F0004FEC10F0000E356E0DD03550000AD8B405
:10180000D7D7010AD8B4DDD7030AD8B4E3D7010A81
:10181000D8B4E9D7362A12000101016F000E3EEC60
:1018200010F0D58CD59AD58621D0D590D592D59467
:1018300038D0D550F80B010913D0D550F80B020958
:101840000FD0D550F80B03090BD0D550F80B040975
:1018500007D0D550F80B050903D0D550F80B060971
:10186000D56E1FD0D580D582D5841BD00101015102
:10187000000AD8B4F7D7020AD8B4D7D7060AD8B422
:10188000D8D70C0AD8B4D9D7180AD8B4DAD7300ABE
:10189000D8B4DBD7600AD8B4DCD7C00AD8B4DDD757
:1018A000C4D7000ED66E000ED76ED08EF28EF28C9C
:1018B000F29AF294F184120012EC0EF0FF0E010184
:1018C000056FFF0E0101066FFF0E7FEC10F00001A7
:1018D0007D51D8B4FCD7000E00017D6FD6EC10F01E
:1018E0000101296F01012905D8A410D056EC0FF091
:1018F000E9CFD9FFEACFDAFF01EE21F0050EDBCF09
:10190000EBFFE806FCE234EC04F0E1D7010E010144
:101910002965DDD7000E0101286F13D00101285180
:10192000D3EC0EF0E9CFD9FFEACFDAFF01EE21F0D8
:10193000050EDBCFEBFFE806FCE234EC04F001011E
:10194000282B010129510101285DD8B0C0D7E6D765
:101950000600FACF0CF0FBCF0DF0E9CF0EF0EACF86
:101960000FF0E1CF10F0E2CF11F0D9CF12F0DACFC3
:1019700013F0F3CF14F0F4CF15F0F6CF16F0F7CF45
:1019800017F0F8CF18F0F5CF19F0F2A407D0000E39
:10199000D66E000ED76EF294DBEC0DF019C0F5FF99
:1019A00018C0F8FF17C0F7FF16C0F6FF15C0F4FF08
:1019B00014C0F3FF13C0DAFF12C0D9FF11C0E2FF59
:1019C00010C0E1FF0FC0EAFF0EC0E9FF0DC0FBFF32
:1019D0000CC0FAFF46921100036E03C001F07CC0F8
:1019E00002F0012A02D0D8900232012EFCD7025018
:1019F00000017B5DD8A002D0819401D0818403C016
:101A000001F07AC002F0012A02D0D8900232012EF1
:101A1000FCD702500001795DD8A002D0819601D098
:101A2000818603C001F078C002F0012A02D0D8906C
:101A30000232012EFCD702500001775DD8A002D0FF
:101A4000819201D0818200017B2B0001792B000162
:101A5000772B1200F70E336402D0000E346E080E9E
:101A6000336002D0010E346EF70E456402D0000ED2
:101A7000326E080E456002D0010E326EF70E4464DD
:101A800002D0000E316E080E446002D0010E316E9D
:101A90003450D8B403D02F28332602D02F28335EF9
:101AA0003250D8B403D02F28452602D02F28455EC7
:101AB0003150D8B403D02F28442602D02F28445EBA
:101AC00045C003F044C004F033504FEC10F0120056
:101AD000000E0101066F000E056F010102510101A8
:101AE0000311D8B42CD0010E0101046F06D00101FE
:101AF000D890023703370101042B010103AFF7D758
:101B00000101D89005370637010102510101005D3E
:101B10000101035101010159D8A00AD0010102516C
:101B20000101005F010103510101015B0101058118
:101B30000101D890033302330101042FE1D705C11D
:101B400000F106C101F1120040C0C1F041C0C2F075
:101B50000001C151C211D8A4000EC36F5EEC08F0A1
:101B60003CC0C1F03DC0C2F00001C151C211D8A4B7
:101B7000000EC36F5EEC08F0500E0001C16F080E3E
:101B80000001C26F0001C151C211D8A4000EC36F81
:101B9000BEC0C4F00001C56B5EEC08F042C0C1F0ED
:101BA00043C0C2F00001C151C211D8A4000EC36FDE
:101BB0005EEC08F0120024D02F50ECEC0CF030D08A
:101BC0003750D8B4B8EC0BF0000EECEC0CF028D089
:101BD0003750D8B4BCEC0FF0000EECEC0CF020D079
:101BE0003750D8B42AEC0DF0000EECEC0CF018D005
:101BF0003750D8B48DEC0AF0000EECEC0CF010D09D
:101C00003050000AD8B4D8D7010AD8B4D9D7030ABB
:101C1000D8B4DED7010AD8B4E3D7070AD8B4E8D7D6
:101C2000372A120070EC10F0590E01010E6F080EE9
:101C300001010F6F4B0E0101116F000E106F010EAD
:101C40000101126F63EC0BF0010E19EC10F09FEC28
:101C50000FF0010E9FEC10F0800E0001806F800EDF
:101C600000017F6F800E00017E6F570E01011C6F17
:101C7000080E01011D6F240E01011E6F080E0101E7
:101C80001F6FF9EC0AF012000101095101010A115C
:101C9000D8B426D0010E01010B6F06D00101D890F7
:101CA00009370A3701010B2B01010AAFF7D70101F0
:101CB00009510101075D01010A5101010859D8A02C
:101CC00008D0010109510101075F01010A51010119
:101CD000085B0101D8900A33093301010B2FE7D7C4
:101CE00007C107F108C108F11200BA0EF66E210E05
:101CF000F76E000EF86E0900F5CFE7F00900F5CF9A
:101D0000E8F05A0EF66E210EF76E000EF86E00EE39
:101D10003CF010EE0AF00900F5CFEEFFE550E1507F
:101D2000FAE100EE60F0600EEE6AE806FDE100EE1A
:101D300025F0170EEE6AE806FDE146904692000E89
:101D4000F86E00015CEF0CF0000E0101046F000E54
:101D50000101026F000E0101036F1BD000C1D9FF0A
:101D600001C1DAFFDF50D00F0101026F0101035101
:101D70000101D8B405D00A0E01010403F350046F29
:101D800001010251010104270101032B0101004B54
:101D9000012B00C1D9FF01C1DAFFDF50D8A4DED783
:101DA0000101045112000101076F01010751110DDA
:101DB0008B0EF324D96E000EF420DA6E11EE08F0CB
:101DC000100EDBCFE3FFE806FCE2850E0001716F29
:101DD000000E0001726F080E0001736F010E00010A
:101DE000746F0E0E0001756F010E0001766F20EE0C
:101DF00071F001EE00F0050EDBCFEBFFE806FCE230
:101E0000120006D00101004B012B0101024B032BF4
:101E100000C1D9FF01C1DAFFDF500101046F02C127
:101E2000F6FF03C1F7FF0800F55000080101042583
:101E30000101056F01010551D8A407D000C1D9FFE8
:101E400001C1DAFFDF50D8A4DDD70101055101013E
:101E5000006F016B00BF01071200000E206E000E24
:101E60001F6E1C501D10D8B41CD0010E1E6E04D065
:101E7000D8901C361D361E2A1DAEFAD7D8901F36B4
:101E800020361C501A5C1D501B58D8A005D01C5081
:101E90001A5E1D501B5A1F80D8901D321C321E2EF8
:101EA000EDD71FC01AF020C01BF0120020EE8BF0FF
:101EB00011EE06F0100EDBCFE3FFE806FCE2850E24
:101EC0000001716F000E0001726F060E0001736F4A
:101ED000010E0001746F0C0E0001756F010E000100
:101EE000766F20EE71F001EE00F0050EDBCFEBFF18
:101EF000E806FCE2120023502410D8B41BD0010ED7
:101F00000001C06F05D0D890233624360001C02BC5
:101F100024AEF9D72350215C24502258D8A004D0F5
:101F20002350215E2450225AD890243223320001BB
:101F3000C02FF0D721C021F022C022F01200000EE5
:101F400000017B6F00017C69000E0001796F0001C8
:101F50007A69000E0001776F00017869000E2F6E1C
:101F6000000E306E000E0CEC0CF0000E3EEC10F08B
:101F70009390939293941200F70E3A6402D0000E5D
:101F80003B6E080E3A6002D0010E3B6E3B50D8B457
:101F900003D02F283A2602D02F283A5E3AC003F009
:101FA0003AC004F03A504FEC10F012000101016FFA
:101FB00009D000C17CF0120000C17AF0120000C10B
:101FC00078F0120001010151000AD8B4F2D7010AD9
:101FD000D8B4F2D7030AD8A41200F1D7026E09D000
:101FE00001C07CF0120001C07AF0120001C078F04C
:101FF00012000250000AD8B4F3D7010AD8B4F3D7BC
:10200000030AD8A41200F2D7ABA404D0AECF1BF0C1
:10201000000E1200ABA20BD0000E60EC10F0280EE8
:10202000E82EFED7010E60EC10F0000E1200AE504C
:1020300012000101006F010100510101D8B406D066
:10204000949C948EAC8AAB88AB8E1200949C949E28
:10205000AC9AAB98AB9E12000101046F04C100F171
:10206000000ED6EC0FF002C100F1010ED6EC0FF01D
:1020700003C100F1020ED6EC0FF012000101006F57
:10208000010100510101D8B405D0D58EF28A000EAD
:102090002B6E1200D59EF29A000E2B6E1200056E6A
:1020A00005C001F0000EEEEC0FF003C001F0010ED0
:1020B000EEEC0FF004C001F0020EEEEC0FF0120097
:1020C0001A6E1A50D8B406D0949C948EAC8AAB8801
:1020D000AB8E1200949C949EAC9AAB98AB9E12006F
:1020E000000E926E000E806E000E936E000E816EDA
:1020F000000E946E000E826E0F0EC16E1200010172
:10210000076F05C102F106C103F1010107512CEC73
:1021100010F0000E306E12000101016F010E19EC7B
:1021200010F0ACA2FED701C1ADFF12001B6E010E74
:1021300060EC10F0ACA2FED71BC0ADFF1200010195
:10214000016F010101513EEC10F012000101026F1C
:10215000010102518CEC10F01200350839086308B7
:102160006108FF802F50D8B412002F061200070E0E
:102170002F6012002F2A12001C6E1C5096EC10F0DB
:102180001200020E306E1200040E306E12000001BA
:102190007B511200000179511200000177511200A9
:1021A000010E306E1200030E306E120000018451D9
:0C21B0001200305012002F5012003D08A9
:020000040020DA
:08000000FFFFFFFFFFFFFFFF00
:020000040030CA
:0E000000030E1F1EFF8080FF0FC00FE00F4099
:00000001FF
