:040000005AEF00F0C3
:060008004682D3ED0DF06D
:100018004680D8CF76F0E8CF77F0E0CF78F0FACF07
:1000280079F0FBCF7AF0E9CF7BF0EACF7CF0E1CF33
:100038007DF0E2CF7EF0D9CF7FF0DACF80F0F3CF3A
:1000480081F0F4CF82F0F6CF83F0F7CF84F0F8CFC9
:1000580085F0F5CF86F09EAA05D002EC11F0F2ECFF
:1000680005F09E9A86C0F5FF85C0F8FF84C0F7FFAB
:1000780083C0F6FF82C0F4FF81C0F3FF80C0DAFFBF
:100088007FC0D9FF7EC0E2FF7DC0E1FF7CC0EAFFF0
:100098007BC0E9FF7AC0FBFF79C0FAFF78C0E0FFB8
:1000A80077C0E8FF76C0D8FF4690100003EF0FF046
:100800000001000A006400E8031027010010000046
:100810000100103031323334353637383961626394
:1008200064656600696E6974005343410053544126
:1008300000524742004F4646005B415D005B425D0F
:10084000005B4D5D00464100464C00534D004F4E4D
:1008500000535400256400257800440047004900F7
:0F0860005000520053005500240026003A0000BB
:10087000AAC087F0ABC088F0620E0001896F080E35
:1008800000018A6F25EC10F00001875100018811EA
:10089000D8A411D0ACC087F0ADC088F09AEC0FF0AE
:1008A0000001D16FD0C08CF0CFC08DF00001D151CC
:1008B0003CEC11F01200AAC087F0ABC088F05C0ECF
:1008C0000001896F080E00018A6F25EC10F000010D
:1008D000875100018811D8A411D0ACC087F0ADC0F9
:1008E00088F09AEC0FF00001D06FD0C08CF0CFC030
:1008F0008DF00001D1513CEC11F01200AAC087F03C
:10090000ABC088F0330E0001896F080E00018A6FBA
:1009100025EC10F00001875100018811D8A411D0F6
:10092000ACC087F0ADC088F09AEC0FF00001CF6F3B
:10093000D0C08CF0CFC08DF00001D1513CEC11F053
:100940001200AAC087F0ABC088F0640E0001896F66
:10095000080E00018A6F25EC10F00001875100019C
:100960008811D8A428D0ACC087F0ADC088F05A0E4A
:100970000001896F080E00018A6F25EC10F000015C
:10098000875100018811D8B4CEEC11F0ACC087F0CB
:10099000ADC088F0660E0001896F080E00018A6FF5
:1009A00025EC10F00001875100018811D8A4120035
:1009B000C9EC11F01200AAC087F0ABC088F0480E55
:1009C0000001896F080E00018A6F25EC10F000010C
:1009D000875100018811D8A403D0B6EC11F01200A1
:1009E000AAC087F0ABC088F0510E0001896F080ED5
:1009F00000018A6F25EC10F0000187510001881179
:100A0000D8A403D0A8EC11F01200AAC087F0ABC0A4
:100A100088F0450E0001896F080E00018A6F25ECF1
:100A200010F00001875100018811D8A403D0BDEC5B
:100A300011F01200AAC087F0ABC088F04B0E000185
:100A4000896F080E00018A6F25EC10F000018751B4
:100A500000018811D8A403D0AFEC11F01200AAC095
:100A600087F0ABC088F0350E0001896F080E0001D9
:100A70008A6F25EC10F00001875100018811D8A47D
:100A800004D0000ED6EC10F01200AAC087F0ABC064
:100A900088F04E0E0001896F080E00018A6F25EC68
:100AA00010F00001875100018811D8A404D0010E74
:100AB000D6EC10F01200AAC087F0ABC088F0310E5F
:100AC0000001896F080E00018A6F25EC10F000010B
:100AD000875100018811D8A43DD0620E0001A36F98
:100AE000080E0001A46FD8EC11F00001AE6F0001F8
:100AF000AE510001A56FA66B4FEC0AF0280EE82E50
:100B0000FED75C0E0001A36F080E0001A46FDBECA2
:100B100011F00001AE6F0001AE510001A56FA66B90
:100B20004FEC0AF0280EE82EFED7330E0001A36F1B
:100B3000080E0001A46FDEEC11F00001AE6F0001A1
:100B4000AE510001A56FA66B4FEC0AF0280EE82EFF
:100B5000FED71200AAC087F0ABC088F0290E0001B2
:100B6000896F080E00018A6F25EC10F00001875193
:100B700000018811D8A412D0290E0001A36F080E1D
:100B80000001A46FE6EC11F00001AE6F0001AE5160
:100B90000001A56FA66B4FEC0AF01200AAC087F007
:100BA000ABC088F02D0E0001896F080E00018A6F1E
:100BB00025EC10F00001875100018811D8A4120023
:100BC0002D0E0001A36F080E0001A46FE4EC11F0DC
:100BD0000001AE6F0001AE510001A56FA66B4FEC96
:100BE0000AF012000001756F4CD1260E0001751934
:100BF000D8A41AD0000E0101026F000E0101036F8C
:100C0000000E2A6E000E0101096F000E2B6E000E01
:100C10000001B66F000E0001C16F000E0001CE6F23
:100C2000010E01013E6F1200000E01013E6F120025
:100C30003A0E00017519D8A40FD0020E01013E6FC3
:100C400001010251010D000EF324D96E010EF420B2
:100C5000DA6E000EDF6E120001010251010D000E6E
:100C6000F324D96E010EF420DA6E75C0DFFF0101A6
:100C7000022B0A0E010102651200000E0101026F33
:100C800012003A0E00017519D8A40FD0030E01010D
:100C90003E6F01010951010D040EF324D96E010EBE
:100CA000F420DA6E000EDF6E120001010951010D11
:100CB000040EF324D96E010EF420DA6E75C0DFFF46
:100CC0000101092B320E010109651200000E01011C
:100CD000096F12003A0E00017519D8A40FD0040E46
:100CE00001013E6F01010951010D040EF324D96E7B
:100CF000010EF420DA6E000EDF6E12000001755155
:100D0000D00F0101036F00017551D00F2A6E120040
:100D10003A0E00017519D8A40FD0050E01013E6FDF
:100D20000001B651010DB10EF324D96E000EF4206E
:100D3000DA6E000EDF6E12000001B651010DB10E29
:100D4000F324D96E000EF420DA6E75C0DFFF0001C7
:100D5000B62B320E0001B6651200000E0001B66F10
:100D600012003A0E00017519D8A45ED00001C151DD
:100D7000010DB70EF324D96E000EF420DA6E000ECA
:100D8000DF6E20EEB1F02B50110D0A0EF324E16E50
:100D9000010EF420E26E100EDBCFE3FFE806FCE26A
:100DA000000E0001746F000E0001746F0DD0000181
:100DB0007451010DB10EF324D96E000EF420DA6ED9
:100DC000000EDF6E0001742B0001B6510001745D4E
:100DD000D8A0EDD7000E0001746F0DD00001745142
:100DE000010DB70EF324D96E000EF420DA6E000E5A
:100DF000DF6E0001742B0001C1510001745DD8A0A9
:100E0000EDD7000E0001B66F000E0001C16F2A067B
:100E10002B2A2A50D8A404D0060E01013E6F1200DE
:100E2000040E01013E6F12000001C151010DB70E09
:100E3000F324D96E000EF420DA6E75C0DFFF0001D6
:100E4000C12B320E0001C1651200000E0001C16FFE
:100E50001200240E00017519D8A409D0CCEC0EF0B4
:100E6000000E01013E6F010E0001CE6F1200000165
:100E70007551D00F01013D6F1200000E01013E6F50
:100E8000120001013E51000AD8B4AFD6010AD8B40D
:100E9000CFD6030AD8B4F5D6010AD8B41BD7070AAF
:100EA000D8B436D7010AD8B45CD7030AD8B4D1D79E
:100EB000E4D7960E00019C6F000E00019D6F15D1C6
:100EC000250E0001A219D8B405D00001A251A1EC51
:100ED00011F00BD1000E00019F6F08D000019F8F11
:100EE00028D00001A251A1EC11F0FFD093C098F0DE
:100EF00094C099F095C09AF00001932B000E9423B2
:100F0000952398C0F6FF99C0F7FF9AC0F8FF080034
:100F1000F5CFA2F00001A251000AD8B41200640A71
:100F2000D8B407D00D0AD8B404D0110AD8B4D6D793
:100F3000D8D700019FBF19D09CC0D9FF9DC0DAFF50
:100F4000DECFA0F0DDCFA1F0020E00019C27000E45
:100F50009D230001A1AF53D0030E00019F13000198
:100F6000A06DA11FD8B0A12B4AD09CC0D9FF9DC0B5
:100F7000DAFFDECFA0F0DDCFA1F0020E00019C274A
:100F8000000E9D233CD0010E0001A26F050E000152
:100F9000A219D8B43DD00001A251020D010EF324D4
:100FA000F66E080EF420F76E0900F5500001A05D02
:100FB0000900F5500001A159D8A02AD00001A22BA8
:100FC000E5D7010E0001A26F040E0001A219D8B4EA
:100FD0001FD00001A251020D0B0EF324F66E080E75
:100FE000F420F76E0900F5500001A05D0900F550EE
:100FF0000001A159D8A00CD00001A22BE5D7000117
:101000009F51800B000AD8B4BED7800AD8B4D9D774
:101010009FC098F0030E00019817D8B403D02D0E8E
:10102000A1EC11F0A2C09EF05AD000019E51020D19
:10103000010EF324F66E080EF420F76E0900F5CFCA
:1010400089F00A00F5CF8AF0A0C087F0A1C088F02F
:1010500054EC0EF087C08EF088C08FF0000E0001B7
:10106000916F0A0E906F69EC0FF000018E51300FF6
:101070000001A26F30D0A0C087F0A1C088F00001AD
:101080009E51020D0B0EF324F66E080EF420F76E3F
:101090000900F5CF89F00A00F5CF8AF054EC0EF084
:1010A000000187510F0B00019B6F00019B51010D47
:1010B000130EF324F66E080EF420F76E0800F5CF39
:1010C000A2F009D000019F51800B000AD8B4ADD71F
:1010D000800AD8B4D0D70001A251A1EC11F00001D0
:1010E0009E0700019E29D8A4EDD793C098F094C024
:1010F00099F095C09AF00001932B000E942395234C
:1011000098C0F6FF99C0F7FF9AC0F8FF0800F5CF26
:10111000A2F00001A251D8B41200D2D6670E00018D
:101120006D6F000E00016E6F14D1250E0001731952
:10113000D8B405D000017351D3EC11F00AD1000EE0
:101140000001706F08D00001708F28D0000173512A
:10115000D3EC11F0FED064C069F065C06AF066C0DF
:101160006BF00001642B000E6523662369C0F6FF57
:101170006AC0F7FF6BC0F8FF0800F5CF73F00001FD
:101180007351000AD8B41200640AD8B407D00D0A0B
:10119000D8B404D0110AD8B4D6D7D8D7000170BFBC
:1011A00019D06DC0D9FF6EC0DAFFDECF71F0DDCF90
:1011B00072F0020E00016D27000E6E23000172AF67
:1011C00053D0030E000170130001716D721FD8B06F
:1011D000722B4AD06DC0D9FF6EC0DAFFDECF71F03E
:1011E000DDCF72F0020E00016D27000E6E233CD0A1
:1011F000010E0001736F050E00017319D8B43DD0C4
:1012000000017351020D010EF324F66E080EF42056
:10121000F76E0900F5500001715D0900F5500001FD
:101220007259D8A02AD00001732BE5D7010E000116
:10123000736F040E00017319D8B41FD000017351ED
:10124000020D0B0EF324F66E080EF420F76E090063
:10125000F5500001715D0900F55000017259D8A0E8
:101260000CD00001732BE5D700017051800B000AF0
:10127000D8B4BED7800AD8B4D9D770C069F0030EED
:1012800000016917D8B403D02D0ED3EC11F073C050
:101290006FF059D000016F51020D010EF324F66E6C
:1012A000080EF420F76E0900F5CF1CF00A00F5CF08
:1012B0001DF071C01AF072C01BF051EC10F01AC092
:1012C00060F01BC061F0000E0001636F0A0E626FD8
:1012D000F7EC0FF000016051300F0001736F2FD059
:1012E00071C01AF072C01BF000016F51020D0B0E9D
:1012F000F324F66E080EF420F76E0900F5CF1CF00B
:101300000A00F5CF1DF051EC10F01A500F0B000140
:101310006C6F00016C51010D130EF324F66E080E74
:10132000F420F76E0800F5CF73F009D0000170517A
:10133000800B000AD8B4AED7800AD8B4D1D7000148
:101340007351D3EC11F000016F0700016F29D8A48D
:10135000EDD764C069F065C06AF066C06BF000014B
:10136000642B000E6523662369C0F6FF6AC0F7FF91
:101370006BC0F8FF0800F5CF73F000017351D8B4CB
:101380001200D3D6000E0001906F00018EAF0CD07A
:1013900000018E1F8D1F8C1F8B6D000E8C238D23E3
:1013A0008E23010E0001906F00018AAF0CD0000166
:1013B0008A1F891F881F876D000E882389238A232F
:1013C000010E0001901B000E0001916F000E926F44
:1013D000000E936F000E946F00018B5100018C1171
:1013E00000018D1100018E11D8B442D0010E000110
:1013F0008F6F08D00001D8908B378C378D378E37A0
:1014000000018F2B00018EAFF5D70001D8909137E6
:1014100092379337943700018B510001875D0001AB
:101420008C510001885900018D510001895900013A
:101430008E5100018A59D8A012D000018B510001B1
:10144000875F00018C510001885B00018D51000114
:10145000895B00018E5100018A5B000191810001CE
:10146000D8908E338D338C338B3300018F2FCDD7B3
:10147000000190510001D8B409D00001941F931FBE
:10148000921F916D000E92239323942391C087F0B5
:1014900092C088F093C089F094C08AF0120040C0D6
:1014A00093F041C094F0000193519411D8A4000E20
:1014B000956F59EC07F0D7C093F0D8C094F00001B5
:1014C00093519411D8A4000E956F59EC07F0D4C035
:1014D00093F0D5C094F0D6C095F059EC07F06C0E9F
:1014E0000001936F080E0001946F00019351941155
:1014F000D8A4000E956F59EC07F0A3C093F0A4C0D8
:1015000094F0000193519411D8A4000E956F59ECFA
:1015100007F06C0E0001936F080E0001946F00013C
:1015200093519411D8A4000E956F59EC07F0540E06
:101530000001936F080E0001946F00019351941104
:10154000D8A4000E956FA5C096F0A6C097F059ECF0
:1015500007F042C093F043C094F0000193519411FE
:10156000D8A4000E956F59EC07F0100E0001A76F7C
:10157000940EE82EFED7A72FFCD700F012002DC046
:1015800006F0FF0E076E000E086E062A03D0083420
:1015900008320732062EFBD73850096E0A6A075008
:1015A000095C0A50800A0B6E0850800A0B58D8A0BC
:1015B00002D0000E386E3850D8B438D04AD0000E61
:1015C000036E000E046EFF0E5EEC11F0010E2CD0C7
:1015D000FF0E036E000E046EFF0E5EEC11F0020EA5
:1015E00023D0FF0E036E000E046E000E5EEC11F0B1
:1015F000030E1AD0FF0E036EFF0E046E000E5EEC9B
:1016000011F0040E11D0000E036EFF0E046E000EDA
:101610005EEC11F0050E08D0000E036EFF0E046E96
:10162000FF0E5EEC11F0000E376E13D03750000A3B
:10163000D8B4C5D7010AD8B4CBD7030AD8B4D1D708
:10164000010AD8B4D7D7070AD8B4DDD7010AD8B46D
:10165000E3D7382A120040C093F041C094F0000153
:1016600093519411D8A4000E956F59EC07F0D7C090
:1016700093F0D8C094F0000193519411D8A4000EB7
:10168000956F59EC07F0D4C093F0D5C094F0D6C054
:1016900095F059EC07F06C0E0001936F080E0001F5
:1016A000946F000193519411D8A4000E956F59ECDA
:1016B00007F0A3C093F0A4C094F0000193519411DB
:1016C000D8A4000E956F59EC07F06C0E0001936FD3
:1016D000080E0001946F000193519411D8A4000EDC
:1016E000956F59EC07F0A5C093F0A6C094F00001E7
:1016F00093519411D8A4000E956F59EC07F042C095
:1017000093F043C094F0000193519411D8A4000EBB
:10171000956F59EC07F0100E0001A76F940EE82E9C
:10172000FED7A72FFCD700F012000001896F050E2D
:101730002E18D8B45BD00001895100080001876FD2
:10174000070E00018727CDC088F00001872B03D04A
:101750000001D89088330001872FFAD70001885103
:101760000001CC5DD8A002D0819401D08184000119
:10177000895100080001876F070E00018727CBC041
:1017800088F00001872B03D00001D8908833000136
:10179000872FFAD7000188510001CA5DD8A002D076
:1017A000819601D081860001895100080001876F70
:1017B000070E00018727C9C088F00001872B03D0DE
:1017C0000001D89088330001872FFAD70001885193
:1017D0000001C85DD8A002D0819201D081820001B1
:1017E000CC2B0001CA2B0001C82B120081948196DA
:1017F00081921200949C948E95C0D4F096C0D5F03E
:101800000001D451D511D8A4000ED66F000E0001EE
:10181000CE6F000E17EC11F0AC9CAC98AC94AB9C66
:10182000B89AB898B89697C08BF098C08CF0000121
:101830008D6B8E6B000E0001876F6C0E886FDC0E57
:10184000896F020E8A6FC2EC09F087C09AF088C0D7
:101850009BF089C09CF08AC09DF09AC087F09BC025
:1018600088F09CC089F09DC08AF0400E00018B6F0B
:10187000000E8C6F000E8D6F000E8E6FC2EC09F0A3
:1018800000018705AF6E000199510001D8B4120024
:10189000D08EF28EF28C9E9A9F9A9D8A12002DC055
:1018A00006F0FF0E076E000E086E062A03D00834FD
:1018B00008320732062EFBD73550096E0A6A0750E8
:1018C000095C0A50800A0B6E0850800A0B58D8A099
:1018D00002D0000E356E3550D8B426D032D0000E6E
:1018E000036E000E046EFF0E5EEC11F0010E1AD0B6
:1018F000FF0E036E000E046E000E5EEC11F0020E81
:1019000011D0000E036EFF0E046E000E5EEC11F09F
:10191000030E08D0FF0E036EFF0E046EFF0E5EEC8A
:1019200011F0000E346E0DD03450000AD8B4D7D761
:10193000010AD8B4DDD7030AD8B4E3D7010AD8B472
:10194000E9D7352A12000001886F000E4DEC11F026
:10195000D58CD59AD58621D0D590D592D59438D02E
:10196000D550F80B010913D0D550F80B02090FD050
:10197000D550F80B03090BD0D550F80B040907D04C
:10198000D550F80B050903D0D550F80B0609D56ED4
:101990001FD0D580D582D5841BD000018851000A84
:1019A000D8B4F7D7020AD8B4D7D7060AD8B4D8D74C
:1019B0000C0AD8B4D9D7180AD8B4DAD7300AD8B4B0
:1019C000DBD7600AD8B4DCD7C00AD8B4DDD7C4D717
:1019D000000ED66E000ED76ED08EF28EF28CF29A7A
:1019E000F294F1841200036E050E2E18D8B446D07E
:1019F00003500008016E070E0126CDC002F0012A37
:101A000002D0D8900232012EFCD702500001CC5DEA
:101A1000D8A002D0819401D0818403500008016EC7
:101A2000070E0126CBC002F0012A02D0D890023264
:101A3000012EFCD702500001CA5DD8A002D08196C9
:101A400001D0818603500008016E070E0126C9C02F
:101A500002F0012A02D0D8900232012EFCD70250A7
:101A60000001C85DD8A002D0819201D0818200011E
:101A7000CC2B0001CA2B0001C82B12008194819647
:101A80008192120038EC0FF0D0C08CF0CFC08DF0F6
:101A90000001D1513CEC11F00001CE51D8B4FCD77B
:101AA000000E0001CE6FE1EC11F00001B06F0001FB
:101AB000B005D8A410D07AEC10F0E9CFD9FFEACF66
:101AC000DAFF00EEA8F0050EDBCFEBFFE806FCE244
:101AD00038EC04F0E1D7010E0001B065DDD7000E4F
:101AE0000001AF6F13D00001AF51C9EC0FF0E9CF87
:101AF000D9FFEACFDAFF00EEA8F0050EDBCFEBFF4F
:101B0000E806FCE238EC04F00001AF2B0001B05114
:101B10000001AF5DD8B0C0D7E6D73050D8B439D0C7
:101B2000000E306EF70E326402D0000E336E080ED7
:101B3000326002D0010E336EF70E456402D0000E03
:101B4000316E080E456002D0010E316EF70E44640E
:101B500002D0000E2F6E080E446002D0010E2F6ED0
:101B60003350D8B403D02D28322602D02D28325E2F
:101B70003150D8B403D02D28452602D02D28455EFB
:101B80002F50D8B403D02D28442605D02D28445EEC
:101B900002D0010E306E45C003F044C004F0325054
:101BA0005EEC11F012000600FACF0CF0FBCF0DF046
:101BB000E9CF0EF0EACF0FF0E1CF10F0E2CF11F055
:101BC000D9CF12F0DACF13F0F3CF14F0F4CF15F031
:101BD000F6CF16F0F7CF17F0F8CF18F0F5CF19F0D1
:101BE000F2A407D0000ED66E000ED76EF29490ECE1
:101BF0000EF019C0F5FF18C0F8FF17C0F7FF16C0A8
:101C0000F6FF15C0F4FF14C0F3FF13C0DAFF12C0D3
:101C1000D9FF11C0E2FF10C0E1FF0FC0EAFF0EC004
:101C2000E9FF0DC0FBFF0CC0FAFF469211002D50DA
:101C3000066E076A060ED89006360736E82EFBD7E2
:101C4000010E0626000E07223950086E096A06505A
:101C5000085C0950800A0A6E0750800A0A58D8B0FA
:101C600018D0020E3B6008D0FF0E036EFF0E046E0C
:101C7000FF0E5EEC11F007D0000E036E000E046E36
:101C8000000E5EEC11F03B2A130E3B6402D0000EF6
:101C90003B6E2DC006F0060E076ED8900636072E56
:101CA000FCD7062839261200000E00018C6F000EAA
:101CB0008B6F0001895100018A11D8B42CD0010E1C
:101CC00000018D6F06D00001D89089378A37000156
:101CD0008D2B00018AAFF7D70001D8908B378C3756
:101CE000000189510001875D00018A510001885976
:101CF000D8A00AD0000189510001875F00018A51F4
:101D00000001885B00018B810001D8908A33893300
:101D100000018D2FE1D78BC087F08CC088F01200B6
:101D200029D02D50F3EC0CF0362A12003650D8B4DE
:101D30004FEC0CF0070EF3EC0CF0362A1200365084
:101D4000D8B417EC0EF0070EF3EC0CF0362A1200A4
:101D50003650D8B48DEC0DF0070EF3EC0CF0362AAB
:101D600012003650D8B4BFEC0AF0070EF3EC0CF0BA
:101D7000362A12002E50000AD8B4D3D7010AD8B49C
:101D8000D5D7030AD8B4DBD7010AD8B4E1D7070AFC
:101D9000D8B4E7D7010A120040C064F041C065F032
:101DA000000164516511D8A4000E666F8EEC08F036
:101DB0003CC064F03DC065F0000164516511D8A4D9
:101DC000000E666F8EEC08F0570E0001646F080E6F
:101DD0000001656F000164516511D8A4000E666FA3
:101DE0003DC167F00001686B8EEC08F042C064F002
:101DF00043C065F0000164516511D8A4000E666F00
:101E00008EEC08F01200D00EF66E230EF76E000E68
:101E1000F86E0900F5CFD7F00900F5CFD8F0880E9D
:101E2000F66E230EF76E000EF86E00EE3CF010EE2C
:101E30000AF00900F5CFEEFFE550E150FAE101EEBE
:101E400000F03F0EEE6AE806FDE100EEB1F0230E71
:101E5000EE6AE806FDE100EE22F01A0EEE6AE806F0
:101E6000FDE146904692000EF86E000142EF0DF043
:101E70007FEC11F0600E0001956F080E0001966F67
:101E80004B0E0001986F000E976F010E0001996FC5
:101E9000FAEC0BF0010E17EC11F09FEC10F0010EB4
:101EA000D6EC10F00001D169000E0001D06F000ED9
:101EB0000001CF6F5E0E0001A36F080E0001A46F3A
:101EC000240E0001A56F080E0001A66F2BEC0BF08D
:101ED00012000001905100019111D8B426D0010EDA
:101EE0000001926F06D00001D89090379137000121
:101EF000922B000191AFF7D70001905100018E5D48
:101F00000001915100018F59D8A008D000019051D3
:101F100000018E5F0001915100018F5B0001D8909C
:101F2000913390330001922FE7D78EC08EF08FC08F
:101F30008FF01200000E00018B6F000E0001896F00
:101F4000000E00018A6F1BD087C0D9FF88C0DAFF5E
:101F5000DF50D00F0001896F00018A510001D8B411
:101F600005D00A0E00018B03F3508B6F00018951DD
:101F700000018B2700018A2B0001874B882B87C02B
:101F8000D9FF88C0DAFFDF50D8A4DED700018B511B
:101F9000120000018E6F00018E51110D0A0EF32404
:101FA000D96E010EF420DA6E10EE8FF0100EDBCF3A
:101FB000E3FFE806FCE2040E0001C26F010E00011F
:101FC000C36F8F0E0001C46F000E0001C56F950E28
:101FD0000001C66F000E0001C76F20EEC2F000EED8
:101FE00087F0050EDBCFEBFFE806FCE212000001F4
:101FF000625100016311D8B423D0010E216E05D0C7
:102000000001D89062376337212A000163AFF8D707
:10201000000162510001605D0001635100016159DE
:10202000D8A008D0000162510001605F0001635137
:102030000001615B0001D89063336233212EE8D741
:1020400060C060F061C061F0120006D00001874BF3
:10205000882B0001894B8A2B87C0D9FF88C0DAFF03
:10206000DF5000018B6F89C0F6FF8AC0F7FF0800C0
:10207000F550000800018B2500018C6F00018C5188
:10208000D8A407D087C0D9FF88C0DAFFDF50D8A412
:10209000DDD700018C510001876F886B87BF8807EF
:1020A0001200000E206E000E1F6E1C501D10D8B4C2
:1020B0001CD0010E1E6E04D0D8901C361D361E2A70
:1020C0001DAEFAD7D8901F3620361C501A5C1D5012
:1020D0001B58D8A005D01C501A5E1D501B5A1F80DB
:1020E000D8901D321C321E2EEDD71FC01AF020C012
:1020F0001BF0120021EE0AF010EE8DF0100EDBCF77
:10210000E3FFE806FCE2040E0001C26F010E0001CD
:10211000C36F8D0E0001C46F000E0001C56F930EDA
:102120000001C66F000E0001C76F20EEC2F000EE86
:1021300087F0050EDBCFEBFFE806FCE21200000E95
:102140000001CC6F0001CD69000E0001CA6F0001D3
:10215000CB69000E0001C86F0001C969070E2D6E22
:10216000000E2E6E2EC02CF0000EA3EC0CF0000E14
:102170004DEC11F093909392939412000001886FAC
:1021800009D087C0CDF0120087C0CBF0120087C005
:10219000C9F0120000018851000AD8B4F2D7010A30
:1021A000D8B4F2D7030AD8A41200F1D700018A6F7D
:1021B00000018A510001D8B403D02CC02EF007D002
:1021C0002EC02CF0050E2E6E2D5095EC0BF000015C
:1021D0008A514DEC11F01200026E09D001C0CDF011
:1021E000120001C0CBF0120001C0C9F01200025071
:1021F000000AD8B4F3D7010AD8B4F3D7030AD8A495
:102200001200F2D7ABA404D0AECF1BF0000E120028
:10221000ABA20BD0000E6FEC11F0280EE82EFED70B
:10222000010E6FEC11F0000E1200AE501200000112
:10223000876F000187510001D8B406D0949C948E1A
:10224000AC8AAB88AB8E1200949C949EAC9AAB98EF
:10225000AB9E120000018B6F8BC087F0000EBEECAE
:1022600010F089C087F0010EBEEC10F08AC087F034
:10227000020EBEEC10F0120000018E6F8CC089F0CF
:102280008DC08AF000018E512AEC11F0050E2E1837
:10229000D8B41200000E2E6E12000001876F0001EC
:1022A00087510001D8B405D0D58EF28A000E286E71
:1022B0001200D59EF29A000E286E1200056E05C01F
:1022C00001F0000EECEC10F003C001F0010EECEC9C
:1022D00010F004C001F0020EECEC10F012001A6EC7
:1022E0001A50D8B406D0949C948EAC8AAB88AB8E2E
:1022F0001200949C949EAC9AAB98AB9E1200000E78
:10230000926E000E806E000E936E000E816E000EB7
:10231000946E000E826E0F0EC16E12000001886F67
:10232000010E17EC11F0ACA2FED788C0ADFF120071
:102330001B6E010E6FEC11F0ACA2FED71BC0ADFFFF
:1023400012000001896F000189518EEC11F012001A
:10235000050E2E18D8B41200020E2E6E1200050EB5
:102360002E18D8B41200040E2E6E1200050E2E1870
:10237000D8B41200010E2E6E1200050E2E18D8B41D
:102380001200030E2E6E120039083D086A08680814
:10239000FF80070E2D6012002D2A12002D50D8B498
:1023A00012002D0612001C6E1C5098EC11F0120049
:1023B0000001CD5112000001CB5112000001C951A2
:1023C00012000101035112002E5012002D50120074
:0223D0004108C2
:020000040020DA
:08000000FFFFFFFFFFFFFFFF00
:020000040030CA
:0E000000030E1F1EFF8080FF0FC00FE00F4099
:00000001FF
