:040000005AEF00F0C3
:06000800468296ED0CF0AB
:100018004680D8CF74F0E8CF75F0E0CF76F0FACF0D
:1000280077F0FBCF78F0E9CF79F0EACF7AF0E1CF3B
:100038007BF0E2CF7CF0D9CF7DF0DACF7EF0F3CF42
:100048007FF0F4CF80F0F6CF81F0F7CF82F0F8CFD1
:1000580083F0F5CF84F09EAA05D025EC10F0C2EC11
:1000680005F09E9A84C0F5FF83C0F8FF82C0F7FFB1
:1000780081C0F6FF80C0F4FF7FC0F3FF7EC0DAFFC7
:100088007DC0D9FF7CC0E2FF7BC0E1FF7AC0EAFFF8
:1000980079C0E9FF78C0FBFF77C0FAFF76C0E0FFC0
:1000A80075C0E8FF74C0D8FF469010003DEF0EF011
:100800000001000A006400E8031027010010000046
:100810000100103031323334353637383961626394
:1008200064656600696E6974005343410053544126
:1008300000524742005B415D005B425D005B4D5DE5
:1008400000464100464C00534D00535400256400BF
:1008500025780044004700490050005200530055DD
:1008600000240026003A0000A8C085F0A9C086F048
:100870005B0E0001876F080E0001886F60EC0FF0BF
:100880000001855100018611D8A411D0AAC085F0BD
:10089000ABC086F0D5EC0EF00001CF6FCEC08AF071
:1008A000CDC08BF00001CF51A0EC10F01200A8C019
:1008B00085F0A9C086F0550E0001876F080E000173
:1008C000886F60EC0FF00001855100018611D8A4FB
:1008D00011D0AAC085F0ABC086F0D5EC0EF00001B7
:1008E000CE6FCEC08AF0CDC08BF00001CF51A0EC0E
:1008F00010F01200A8C085F0A9C086F0330E0001E8
:10090000876F080E0001886F60EC0FF000018551C1
:1009100000018611D8A411D0AAC085F0ABC086F022
:10092000D5EC0EF00001CD6FCEC08AF0CDC08BF0BB
:100930000001CF51A0EC10F01200A8C085F0A9C0B2
:1009400086F05D0E0001876F080E0001886F60EC75
:100950000FF00001855100018611D8A428D0AAC04B
:1009600085F0ABC086F0530E0001876F080E0001C2
:10097000886F60EC0FF00001855100018611D8B43A
:10098000D8EC10F0AAC085F0ABC086F05F0E000175
:10099000876F080E0001886F60EC0FF00001855131
:1009A00000018611D8A41200D3EC10F01200A8C0E8
:1009B00085F0A9C086F0440E0001876F080E000183
:1009C000886F60EC0FF00001855100018611D8A4FA
:1009D00003D0F1EC10F01200A8C085F0A9C086F099
:1009E0004A0E0001876F080E0001886F60EC0FF05F
:1009F0000001855100018611D8A403D0E2EC10F06B
:100A00001200A8C085F0A9C086F0410E0001876FD2
:100A1000080E0001886F60EC0FF0000185510001A5
:100A20008611D8A403D0F4EC10F01200A8C085F011
:100A3000A9C086F0470E0001876F080E0001886F7D
:100A400060EC0FF00001855100018611D8A403D09D
:100A5000E5EC10F01200A8C085F0A9C086F0310EB8
:100A60000001876F080E0001886F60EC0FF0000135
:100A7000855100018611D8A43DD05B0E0001A16F05
:100A8000080E0001A26FE8EC10F00001AC6F00014D
:100A9000AC510001A36FA46B0BEC0AF0280EE82EFA
:100AA000FED7550E0001A16F080E0001A26FEBECFE
:100AB00010F00001AC6F0001AC510001A36FA46BFA
:100AC0000BEC0AF0280EE82EFED7330E0001A16FC2
:100AD000080E0001A26FEEEC10F00001AC6F0001F7
:100AE000AC510001A36FA46B0BEC0AF0280EE82EAA
:100AF000FED71200A8C085F0A9C086F0290E00011B
:100B0000876F080E0001886F60EC0FF000018551BF
:100B100000018611D8A412D0290E0001A16F080E81
:100B20000001A26FFCEC10F00001AC6F0001AC51B1
:100B30000001A36FA46B0BEC0AF01200A8C085F0B3
:100B4000A9C086F02D0E0001876F080E0001886F86
:100B500060EC0FF00001855100018611D8A412004D
:100B60002D0E0001A16F080E0001A26FFAEC10F02B
:100B70000001AC6F0001AC510001A36FA46B0BEC42
:100B80000AF01200236E39D1260E2318D8A41AD0E9
:100B9000000E0101026F000E0101036F000E2C6EAA
:100BA000000E0101096F000E2D6E000E0001B46FE2
:100BB000000E0001BF6F000E0001CC6F010E01019D
:100BC0003E6F1200000E01013E6F12003A0E231814
:100BD000D8A40FD0020E01013E6F01010251010D98
:100BE000000EF324D96E010EF420DA6E000EDF6ED3
:100BF000120001010251010D000EF324D96E010E05
:100C0000F420DA6E23C0DFFF0101022B0A0E01017E
:100C100002651200000E0101026F12003A0E231845
:100C2000D8A40FD0030E01013E6F01010951010D3F
:100C3000040EF324D96E010EF420DA6E000EDF6E7E
:100C4000120001010951010D040EF324D96E010EA9
:100C5000F420DA6E23C0DFFF0101092B320E0101FF
:100C600009651200000E0101096F12003A0E2318E7
:100C7000D8A40FD0040E01013E6F01010951010DEE
:100C8000040EF324D96E010EF420DA6E000EDF6E2E
:100C900012002350D00F0101036F2350D00F2C6E90
:100CA00012003A0E2318D8A40FD0050E01013E6F92
:100CB0000001B451010DAF0EF324D96E000EF420E3
:100CC000DA6E000EDF6E12000001B451010DAF0E9E
:100CD000F324D96E000EF420DA6E23C0DFFF00018A
:100CE000B42B320E0001B4651200000E0001B46F87
:100CF00012003A0E2318D8A455D00001BF51010D9F
:100D0000B50EF324D96E000EF420DA6E000EDF6EFD
:100D100020EEAFF02D50110D0A0EF324E16E010EFE
:100D2000F420E26E100EDBCFE3FFE806FCE2000EDB
:100D3000226E000E226E0BD02250010DAF0EF32456
:100D4000D96E000EF420DA6E000EDF6E222A00014A
:100D5000B451225CD8A0F0D7000E226E0BD02250E6
:100D6000010DB50EF324D96E000EF420DA6E000EDC
:100D7000DF6E222A0001BF51225CD8A0F0D7000EFE
:100D80000001B46F000E0001BF6F2C062D2A2C50FD
:100D9000D8A404D0060E01013E6F1200040E01011A
:100DA0003E6F12000001BF51010DB50EF324D96E44
:100DB000000EF420DA6E23C0DFFF0001BF2B320EDD
:100DC0000001BF651200000E0001BF6F1200240E6B
:100DD0002318D8A409D0CFEC0DF0000E01013E6F0E
:100DE000010E0001CC6F12002350D00F01013D6FA6
:100DF0001200000E01013E6F120001013E51000A77
:100E0000D8B4C2D6010AD8B4E1D6030AD8B406D7FA
:100E1000010AD8B42BD7070AD8B443D7010AD8B4EB
:100E200068D7030AD8B4D3D7E4D7940E00019A6FD9
:100E3000000E00019B6F15D1250E0001A019D8B43A
:100E400005D00001A051C7EC10F00BD1000E00013D
:100E50009D6F08D000019D8F28D00001A051C7ECE4
:100E600010F0FFD091C096F092C097F093C098F028
:100E70000001912B000E9223932396C0F6FF97C09A
:100E8000F7FF98C0F8FF0800F5CFA0F00001A051CF
:100E9000000AD8B41200640AD8B407D00D0AD8B436
:100EA00004D0110AD8B4D6D7D8D700019DBF19D025
:100EB0009AC0D9FF9BC0DAFFDECF9EF0DDCF9FF056
:100EC000020E00019A27000E9B2300019FAF53D012
:100ED000030E00019D1300019E6D9F1FD8B09F2B34
:100EE0004AD09AC0D9FF9BC0DAFFDECF9EF0DDCF9B
:100EF0009FF0020E00019A27000E9B233CD0010EAA
:100F00000001A06F050E0001A019D8B43DD000016A
:100F1000A051020D010EF324F66E080EF420F76EB8
:100F20000900F55000019E5D0900F55000019F5930
:100F3000D8A02AD00001A02BE5D7010E0001A06F98
:100F4000040E0001A019D8B41FD00001A051020D59
:100F50000B0EF324F66E080EF420F76E0900F55020
:100F600000019E5D0900F55000019F59D8A00CD0EA
:100F70000001A02BE5D700019D51800B000AD8B4D9
:100F8000BED7800AD8B4D9D79DC096F0030E000111
:100F90009617D8B403D02D0EC7EC10F0A0C09CF06B
:100FA0005AD000019C51020D010EF324F66E080E7A
:100FB000F420F76E0900F5CF87F00A00F5CF88F02E
:100FC0009EC085F09FC086F093EC0DF085C08CF03C
:100FD00086C08DF0000E00018F6F0A0E8E6FA4EC9C
:100FE0000EF000018C51300F0001A06F30D09EC078
:100FF00085F09FC086F000019C51020D0B0EF3247A
:10100000F66E080EF420F76E0900F5CF87F00A009F
:10101000F5CF88F093EC0DF0000185510F0B000126
:10102000996F00019951010D130EF324F66E080E0D
:10103000F420F76E0800F5CFA0F009D000019D5113
:10104000800B000AD8B4ADD7800AD8B4D0D700013D
:10105000A051C7EC10F000019C0700019C29D8A406
:10106000EDD791C096F092C097F093C098F0000130
:10107000912B000E9223932396C0F6FF97C0F7FFA3
:1010800098C0F8FF0800F5CFA0F00001A051D8B437
:101090001200D2D6670E00016D6F000E00016E6F58
:1010A00014D1250E00017319D8B405D00001735175
:1010B000DDEC10F00AD1000E0001706F08D00001C5
:1010C000708F28D000017351DDEC10F0FED064C0A9
:1010D00069F065C06AF066C06BF00001642B000E19
:1010E0006523662369C0F6FF6AC0F7FF6BC0F8FF8F
:1010F0000800F5CF73F000017351000AD8B4120054
:10110000640AD8B407D00D0AD8B404D0110AD8B4F0
:10111000D6D7D8D7000170BF19D06DC0D9FF6EC027
:10112000DAFFDECF71F0DDCF72F0020E00016D2725
:10113000000E6E23000172AF53D0030E0001701336
:101140000001716D721FD8B0722B4AD06DC0D9FFEB
:101150006EC0DAFFDECF71F0DDCF72F0020E00015B
:101160006D27000E6E233CD0010E0001736F050E3B
:1011700000017319D8B43DD000017351020D010E66
:10118000F324F66E080EF420F76E0900F550000106
:10119000715D0900F55000017259D8A02AD00001F4
:1011A000732BE5D7010E0001736F040E0001731954
:1011B000D8B41FD000017351020D0B0EF324F66E4C
:1011C000080EF420F76E0900F5500001715D09006A
:1011D000F55000017259D8A00CD00001732BE5D74F
:1011E00000017051800B000AD8B4BED7800AD8B471
:1011F000D9D770C069F0030E00016917D8B403D0C5
:101200002D0EDDEC10F073C06FF059D000016F515E
:10121000020D010EF324F66E080EF420F76E09009D
:10122000F5CF1CF00A00F5CF1DF071C01AF072C0A6
:101230001BF08CEC0FF01AC060F01BC061F0000EC8
:101240000001636F0A0E626F32EC0FF00001605113
:10125000300F0001736F2FD071C01AF072C01BF0F5
:1012600000016F51020D0B0EF324F66E080EF420F0
:10127000F76E0900F5CF1CF00A00F5CF1DF08CECDD
:101280000FF01A500F0B00016C6F00016C51010D33
:10129000130EF324F66E080EF420F76E0800F5CF57
:1012A00073F009D000017051800B000AD8B4AED79A
:1012B000800AD8B4D1D700017351DDEC10F00001E1
:1012C0006F0700016F29D8A4EDD764C069F065C02D
:1012D0006AF066C06BF00001642B000E6523662384
:1012E00069C0F6FF6AC0F7FF6BC0F8FF0800F5CFD2
:1012F00073F000017351D8B41200D3D6000E000170
:101300008E6F00018CAF0CD000018C1F8B1F8A1FC9
:10131000896D000E8A238B238C23010E00018E6FB2
:10132000000188AF0CD00001881F871F861F856DC4
:10133000000E862387238823010E00018E1B000EDA
:1013400000018F6F000E906F000E916F000E926F74
:101350000001895100018A1100018B1100018C11DB
:10136000D8B442D0010E00018D6F08D00001D89092
:1013700089378A378B378C3700018D2B00018CAF72
:10138000F5D70001D8908F37903791379237000109
:1013900089510001855D00018A51000186590001D3
:1013A0008B510001875900018C5100018859D8A048
:1013B00012D0000189510001855F00018A510001AE
:1013C000865B00018B510001875B00018C5100019D
:1013D000885B00018F810001D8908C338B338A3376
:1013E000893300018D2FCDD700018E510001D8B473
:1013F00009D00001921F911F901F8F6D000E902346
:10140000912392238FC085F090C086F091C087F021
:1014100092C088F0120040C091F041C092F00001EB
:1014200091519211D8A4000E936F15EC07F0D5C01E
:1014300091F0D6C092F0000191519211D8A4000E03
:10144000936F15EC07F0D2C091F0D3C092F0D4C0E6
:1014500093F015EC07F0650E0001916F080E000186
:10146000926F000191519211D8A4000E936F15EC68
:1014700007F0A1C091F0A2C092F000019151921129
:10148000D8A4000E936F15EC07F0650E0001916F64
:10149000080E0001926F000191519211D8A4000E24
:1014A000936F15EC07F04D0E0001916F080E0001CF
:1014B000926F000191519211D8A4000E936FA3C0B6
:1014C00094F0A4C095F015EC07F042C091F043C031
:1014D00092F0000191519211D8A4000E936F15EC77
:1014E00007F0100E0001A56F940EE82EFED7A52F71
:1014F000FCD700F012002EC006F0FF0E076E000EA3
:10150000086E062A03D0083408320732062EFBD7AD
:101510003850096E0A6A0750095C0A50800A0B6E3F
:101520000850800A0B58D8A002D0000E386E3850F0
:10153000D8B438D04AD0000E036E000E046EFF0EF1
:1015400070EC10F0010E2CD0FF0E036E000E046E36
:10155000FF0E70EC10F0020E23D0FF0E036E000E93
:10156000046E000E70EC10F0030E1AD0FF0E036E26
:10157000FF0E046E000E70EC10F0040E11D0000E81
:10158000036EFF0E046E000E70EC10F0050E08D016
:10159000000E036EFF0E046EFF0E70EC10F0000ED6
:1015A000376E13D03750000AD8B4C5D7010AD8B463
:1015B000CBD7030AD8B4D1D7010AD8B4D7D7070AF2
:1015C000D8B4DDD7010AD8B4E3D7382A120040C016
:1015D00091F041C092F0000191519211D8A4000EF7
:1015E000936F15EC07F0D5C091F0D6C092F00001D2
:1015F00091519211D8A4000E936F15EC07F0D2C050
:1016000091F0D3C092F0D4C093F015EC07F0650EC2
:101610000001916F080E0001926F0001915192112B
:10162000D8A4000E936F15EC07F0A1C091F0A2C0F2
:1016300092F0000191519211D8A4000E936F15EC15
:1016400007F0650E0001916F080E0001926F000116
:1016500091519211D8A4000E936F15EC07F0A3C01E
:1016600091F0A4C092F0000191519211D8A4000E03
:10167000936F15EC07F042C091F043C092F0000167
:1016800091519211D8A4000E936F15EC07F0100E33
:101690000001A56F940EE82EFED7A52FFCD700F011
:1016A0001200949C948E93C0D2F094C0D3F00001A9
:1016B000D251D311D8A4000ED46F000E0001CC6F0C
:1016C000000E3AEC10F0AC9CAC98AC94AB9CB89A81
:1016D000B898B89695C089F096C08AF000018B6BD7
:1016E0008C6B000E0001856F6C0E866FDC0E876FB1
:1016F000020E886F7EEC09F085C098F086C099F0E4
:1017000087C09AF088C09BF098C085F099C086F099
:101710009AC087F09BC088F0400E0001896F000ED0
:101720008A6F000E8B6F000E8C6F7EEC09F000014B
:101730008505AF6E000197510001D8B41200D08E1C
:10174000F28EF28C9E9A9F9A9D8A12002EC006F00D
:10175000FF0E076E000E086E062A03D0083408320A
:101760000732062EFBD73550096E0A6A0750095C0E
:101770000A50800A0B6E0850800A0B58D8A002D07D
:10178000000E356E3550D8B426D032D0000E036E20
:10179000000E046EFF0E70EC10F0010E1AD0FF0E5A
:1017A000036E000E046E000E70EC10F0020E11D0ED
:1017B000000E036EFF0E046E000E70EC10F0030EB0
:1017C00008D0FF0E036EFF0E046EFF0E70EC10F0DB
:1017D000000E346E0DD03450000AD8B4D7D7010AA9
:1017E000D8B4DDD7030AD8B4E3D7010AD8B4E9D70F
:1017F000352A12000001866F000E5FEC10F0D58CC8
:10180000D59AD58621D0D590D592D59438D0D550BB
:10181000F80B010913D0D550F80B02090FD0D550A1
:10182000F80B03090BD0D550F80B040907D0D5509D
:10183000F80B050903D0D550F80B0609D56E1FD05B
:10184000D580D582D5841BD000018651000AD8B43A
:10185000F7D7020AD8B4D7D7060AD8B4D8D70C0A13
:10186000D8B4D9D7180AD8B4DAD7300AD8B4DBD765
:10187000600AD8B4DCD7C00AD8B4DDD7C4D7000E0C
:10188000D66E000ED76ED08EF28EF28CF29AF29453
:10189000F184120072EC0EF0FF0E00018A6FFF0E51
:1018A00000018B6FFF0EA0EC10F00001CC51D8B4FA
:1018B000FCD7000E0001CC6FF7EC10F00001AE6F0A
:1018C0000001AE05D8A410D0B5EC0FF0E9CFD9FFD8
:1018D000EACFDAFF00EEA6F0050EDBCFEBFFE8065D
:1018E000FCE234EC04F0E1D7010E0001AE65DDD777
:1018F000000E0001AD6F13D00001AD5104EC0FF0EC
:10190000E9CFD9FFEACFDAFF00EEA6F0050EDBCF74
:10191000EBFFE806FCE234EC04F00001AD2B000123
:10192000AE510001AD5DD8B0C0D7E6D70600FACF02
:101930000CF0FBCF0DF0E9CF0EF0EACF0FF0E1CFC6
:1019400010F0E2CF11F0D9CF12F0DACF13F0F3CFCD
:1019500014F0F4CF15F0F6CF16F0F7CF17F0F8CF5C
:1019600018F0F5CF19F0F2A407D0000ED66E000ED5
:10197000D76EF29406EC0EF019C0F5FF18C0F8FF10
:1019800017C0F7FF16C0F6FF15C0F4FF14C0F3FF31
:1019900013C0DAFF12C0D9FF11C0E2FF10C0E1FF8F
:1019A0000FC0EAFF0EC0E9FF0DC0FBFF0CC0FAFF3D
:1019B00046921100036E03C001F0CBC002F0012A71
:1019C00002D0D8900232012EFCD702500001CA5D2D
:1019D000D8A002D0819401D0818403C001F0C9C095
:1019E00002F0012A02D0D8900232012EFCD7025018
:1019F0000001C85DD8A002D0819601D0818603C0C5
:101A000001F0C7C002F0012A02D0D8900232012EA4
:101A1000FCD702500001C65DD8A002D0819201D04F
:101A200081820001CA2B0001C82B0001C62B1200C5
:101A3000F70E326402D0000E336E080E326002D010
:101A4000010E336EF70E456402D0000E316E080EA3
:101A5000456002D0010E316EF70E446402D0000ED4
:101A6000306E080E446002D0010E306E3350D8B490
:101A700003D02E28322602D02E28325E3150D8B420
:101A800003D02E28452602D02E28455E3050D8B4EB
:101A900003D02E28442602D02E28445E45C003F0F1
:101AA00044C004F0325070EC10F012002E50066E5C
:101AB000076A060ED89006360736E82EFBD7010EC9
:101AC0000626000E07223950086E096A0650085C87
:101AD0000950800A0A6E0750800A0A58D8B018D0F8
:101AE000020E3B6008D0FF0E036EFF0E046EFF0E69
:101AF00070EC10F007D0000E036E000E046E000EA6
:101B000070EC10F03B2A130E3B6402D0000E3B6ECB
:101B10002EC006F0060E076ED8900636072EFCD7AC
:101B2000062839261200000E00018A6F000E896F08
:101B30000001875100018811D8B42CD0010E00019A
:101B40008B6F06D00001D8908737883700018B2B28
:101B5000000188AFF7D70001D89089378A37000194
:101B600087510001855D0001885100018659D8A088
:101B70000AD0000187510001855F000188510001F2
:101B8000865B000189810001D8908833873300018A
:101B90008B2FE1D789C085F08AC086F0120040C043
:101BA00064F041C065F0000164516511D8A4000ED5
:101BB000666F4AEC08F03CC064F03DC065F000017F
:101BC00064516511D8A4000E666F4AEC08F0500EFF
:101BD0000001646F080E0001656F0001645165111A
:101BE000D8A4000E666F3DC167F00001686B4AEC37
:101BF00008F042C064F043C065F000016451651113
:101C0000D8A4000E666F4AEC08F0120024D02E50C3
:101C1000DAEC0CF030D03650D8B4A6EC0BF0000E55
:101C2000DAEC0CF028D03650D8B456EC0DF0000E9B
:101C3000DAEC0CF020D03650D8B418EC0DF0000ED1
:101C4000DAEC0CF018D03650D8B47BEC0AF0000E69
:101C5000DAEC0CF010D02F50000AD8B4D8D7010A13
:101C6000D8B4D9D7030AD8B4DED7010AD8B4E3D799
:101C7000070AD8B4E8D7362A1200FC0EF66E210EF9
:101C8000F76E000EF86E0900F5CFD5F00900F5CF1C
:101C9000D6F09C0EF66E210EF76E000EF86E00EE7A
:101CA0003CF010EE0AF00900F5CFEEFFE550E150F0
:101CB000FAE101EE00F03F0EEE6AE806FDE100EE0B
:101CC000AFF0230EEE6AE806FDE100EE24F0180EF8
:101CD000EE6AE806FDE146904692000EF86E0001BD
:101CE0004AEF0CF091EC10F0590E0001936F080EC2
:101CF0000001946F4B0E0001966F000E956F010E60
:101D00000001976F51EC0BF0010E3AEC10F0DAEC99
:101D10000FF0010EC0EC10F0800E0001CF6F800EAE
:101D20000001CE6F800E0001CD6F570E0001A16F34
:101D3000080E0001A26F240E0001A36F080E00011F
:101D4000A46FE7EC0AF0120000018E5100018F1120
:101D5000D8B426D0010E0001906F06D00001D890B3
:101D60008E378F370001902B00018FAFF7D700011E
:101D70008E5100018C5D00018F5100018D59D8A05A
:101D800008D000018E5100018C5F00018F510001CD
:101D90008D5B0001D8908F338E330001902FE7D7F1
:101DA0008CC08CF08DC08DF01200000E0001896F88
:101DB000000E0001876F000E0001886F1BD085C0E8
:101DC000D9FF86C0DAFFDF50D00F0001876F000116
:101DD00088510001D8B405D00A0E00018903F350E0
:101DE000896F00018751000189270001882B0001BC
:101DF000854B862B85C0D9FF86C0DAFFDF50D8A47B
:101E0000DED700018951120000018C6F00018C5156
:101E1000110D0A0EF324D96E010EF420DA6E10EEC5
:101E20008DF0100EDBCFE3FFE806FCE2040E0001AC
:101E3000C06F010E0001C16F8D0E0001C26F000E58
:101E40000001C36F930E0001C46F000E0001C56F47
:101E500020EEC0F000EE85F0050EDBCFEBFFE806CC
:101E6000FCE212000001625100016311D8B423D0DA
:101E7000010E216E05D00001D89062376337212A08
:101E8000000163AFF8D7000162510001605D0001FD
:101E9000635100016159D8A008D0000162510001CE
:101EA000605F000163510001615B0001D890633302
:101EB0006233212EE8D760C060F061C061F012008B
:101EC00006D00001854B862B0001874B882B85C0EF
:101ED000D9FF86C0DAFFDF500001896F87C0F6FFA7
:101EE00088C0F7FF0800F5500008000189250001AF
:101EF0008A6F00018A51D8A407D085C0D9FF86C057
:101F0000DAFFDF50D8A4DDD700018A510001856FC8
:101F1000866B85BF86071200000E206E000E1F6EB6
:101F20001C501D10D8B41CD0010E1E6E04D0D890C9
:101F30001C361D361E2A1DAEFAD7D8901F36203605
:101F40001C501A5C1D501B58D8A005D01C501A5E9E
:101F50001D501B5A1F80D8901D321C321E2EEDD7EB
:101F60001FC01AF020C01BF0120021EE0AF010EE84
:101F70008BF0100EDBCFE3FFE806FCE2040E00015D
:101F8000C06F010E0001C16F8B0E0001C26F000E09
:101F90000001C36F910E0001C46F000E0001C56FF8
:101FA00020EEC0F000EE85F0050EDBCFEBFFE8067B
:101FB000FCE21200000E0001CA6F0001CB69000EA6
:101FC0000001C86F0001C969000E0001C66F000161
:101FD000C769000E2E6E000E2F6E000EFAEC0BF08D
:101FE000000E5FEC10F09390939293941200000116
:101FF000866F09D085C0CBF0120085C0C9F01200F1
:1020000085C0C7F0120000018651000AD8B4F2D78B
:10201000010AD8B4F2D7030AD8A41200F1D7026E8D
:1020200009D001C0CBF0120001C0C9F0120001C0FC
:10203000C7F012000250000AD8B4F3D7010AD8B48E
:10204000F3D7030AD8A41200F2D7ABA404D0AECFC2
:102050001BF0000E1200ABA20BD0000E81EC10F0B2
:10206000280EE82EFED7010E81EC10F0000E1200B3
:10207000AE5012000001856F000185510001D8B4F7
:1020800006D0949C948EAC8AAB88AB8E1200949C44
:10209000949EAC9AAB98AB9E12000001896F89C0E8
:1020A00085F0000EF7EC0FF087C085F0010EF7EC1D
:1020B0000FF088C085F0020EF7EC0FF0120000015F
:1020C000856F000185510001D8B405D0D58EF28A04
:1020D000000E2A6E1200D59EF29A000E2A6E120091
:1020E000056E05C001F0000E0FEC10F003C001F00A
:1020F000010E0FEC10F004C001F0020E0FEC10F016
:1021000012001A6E1A50D8B406D0949C948EAC8AE1
:10211000AB88AB8E1200949C949EAC9AAB98AB9E0D
:102120001200000E926E000E806E000E936E000E76
:10213000816E000E946E000E826E0F0EC16E120044
:1021400000018C6F8AC087F08BC088F000018C5131
:102150004DEC10F0000E2F6E12000001866F010E84
:102160003AEC10F0ACA2FED786C0ADFF12001B6E99
:10217000010E81EC10F0ACA2FED71BC0ADFF120027
:102180000001866F000186515FEC10F01200000123
:10219000876F00018751ADEC10F012003508390847
:1021A00063086108FF802E50D8B412002E0612007A
:1021B000070E2E6012002E2A12001C6E1C50B7EC67
:1021C00010F01200020E2F6E1200040E2F6E12007D
:1021D0000001CA5112000001C85112000001C6518D
:1021E0001200010E2F6E1200030E2F6E120001015D
:0E21F000035112002F5012002E5012003D0815
:020000040020DA
:08000000FFFFFFFFFFFFFFFF00
:020000040030CA
:0E000000030E1F1EFF8080FF0FC00FE00F4099
:00000001FF
