:040000005AEF00F0C3
:06000800458236ED0DF00B
:100018004580D8CF76F0E8CF77F0E0CF78F0FACF08
:1000280079F0FBCF7AF0E9CF7BF0EACF7CF0E1CF33
:100038007DF0E2CF7EF0D9CF7FF0DACF80F0F3CF3A
:1000480081F0F4CF82F0F6CF83F0F7CF84F0F8CFC9
:1000580085F0F5CF86F09EAA05D048EC10F0C2ECEA
:1000680005F09E9A86C0F5FF85C0F8FF84C0F7FFAB
:1000780083C0F6FF82C0F4FF81C0F3FF80C0DAFFBF
:100088007FC0D9FF7EC0E2FF7DC0E1FF7CC0EAFFF0
:100098007BC0E9FF7AC0FBFF79C0FAFF78C0E0FFB8
:1000A80077C0E8FF76C0D8FF4590100061EF0EF0EA
:100800000001000A006400E8031027010010000046
:100810000100103031323334353637383961626394
:1008200064656600696E6974005343410053544126
:1008300000524742005B415D005B425D005B4D5DE5
:1008400000464100464C00534D00535400256400BF
:1008500025780044004700490050005200530055DD
:1008600000240026003A0000AAC087F0ABC088F040
:100870005B0E0001896F080E00018A6F83EC0FF098
:100880000001875100018811D8A411D0ACC087F0B5
:10089000ADC088F0F8EC0EF00001D16FD0C08CF044
:1008A000CFC08DF00001D151C3EC10F01200AAC0EE
:1008B00087F0ABC088F0550E0001896F080E00016B
:1008C0008A6F83EC0FF00001875100018811D8A4D2
:1008D00011D0ACC087F0ADC088F0F8EC0EF000018C
:1008E000D06FD0C08CF0CFC08DF00001D151C3ECDF
:1008F00010F01200AAC087F0ABC088F0330E0001E0
:10090000896F080E00018A6F83EC0FF00001875198
:1009100000018811D8A411D0ACC087F0ADC088F018
:10092000F8EC0EF00001CF6FD0C08CF0CFC08DF08E
:100930000001D151C3EC10F01200AAC087F0ABC087
:1009400088F05D0E0001896F080E00018A6F83EC4C
:100950000FF00001875100018811D8A428D0ACC045
:1009600087F0ADC088F0530E0001896F080E0001BA
:100970008A6F83EC0FF00001875100018811D8B411
:10098000FBEC10F0ACC087F0ADC088F05F0E00014A
:10099000896F080E00018A6F83EC0FF00001875108
:1009A00000018811D8A41200F6EC10F01200AAC0C1
:1009B00087F0ABC088F0440E0001896F080E00017B
:1009C0008A6F83EC0FF00001875100018811D8A4D1
:1009D00003D014EC11F01200AAC087F0ABC088F06D
:1009E0004A0E0001896F080E00018A6F83EC0FF038
:1009F0000001875100018811D8A403D005EC11F043
:100A00001200AAC087F0ABC088F0410E0001896FC8
:100A1000080E00018A6F83EC0FF00001875100017E
:100A20008811D8A403D017EC11F01200AAC087F0E7
:100A3000ABC088F0470E0001896F080E00018A6F75
:100A400083EC0FF00001875100018811D8A403D076
:100A500008EC11F01200AAC087F0ABC088F0310E8C
:100A60000001896F080E00018A6F83EC0FF000010E
:100A7000875100018811D8A43DD05B0E0001A36FFF
:100A8000080E0001A46F0BEC11F00001AE6F000125
:100A9000AE510001A56FA66B1FEC0AF0280EE82EE0
:100AA000FED7550E0001A36F080E0001A46F0EECD7
:100AB00011F00001AE6F0001AE510001A56FA66BF1
:100AC0001FEC0AF0280EE82EFED7330E0001A36FAC
:100AD000080E0001A46F11EC11F00001AE6F0001CF
:100AE000AE510001A56FA66B1FEC0AF0280EE82E90
:100AF000FED71200AAC087F0ABC088F0290E000113
:100B0000896F080E00018A6F83EC0FF00001875196
:100B100000018811D8A412D0290E0001A36F080E7D
:100B20000001A46F1FEC11F00001AE6F0001AE5187
:100B30000001A56FA66B1FEC0AF01200AAC087F097
:100B4000ABC088F02D0E0001896F080E00018A6F7E
:100B500083EC0FF00001875100018811D8A4120026
:100B60002D0E0001A36F080E0001A46F1DEC11F003
:100B70000001AE6F0001AE510001A56FA66B1FEC26
:100B80000AF012000001756F4CD1260E0001751994
:100B9000D8A41AD0000E0101026F000E0101036FEC
:100BA000000E2A6E000E0101096F000E2B6E000E62
:100BB0000001B66F000E0001C16F000E0001CE6F84
:100BC000010E01013E6F1200000E01013E6F120086
:100BD0003A0E00017519D8A40FD0020E01013E6F24
:100BE00001010251010D000EF324D96E010EF42013
:100BF000DA6E000EDF6E120001010251010D000ECF
:100C0000F324D96E010EF420DA6E75C0DFFF010106
:100C1000022B0A0E010102651200000E0101026F93
:100C200012003A0E00017519D8A40FD0030E01016D
:100C30003E6F01010951010D040EF324D96E010E1E
:100C4000F420DA6E000EDF6E120001010951010D71
:100C5000040EF324D96E010EF420DA6E75C0DFFFA6
:100C60000101092B320E010109651200000E01017C
:100C7000096F12003A0E00017519D8A40FD0040EA6
:100C800001013E6F01010951010D040EF324D96EDB
:100C9000010EF420DA6E000EDF6E120000017551B5
:100CA000D00F0101036F00017551D00F2A6E1200A1
:100CB0003A0E00017519D8A40FD0050E01013E6F40
:100CC0000001B651010DB10EF324D96E000EF420CF
:100CD000DA6E000EDF6E12000001B651010DB10E8A
:100CE000F324D96E000EF420DA6E75C0DFFF000128
:100CF000B62B320E0001B6651200000E0001B66F71
:100D000012003A0E00017519D8A45ED00001C1513D
:100D1000010DB70EF324D96E000EF420DA6E000E2A
:100D2000DF6E20EEB1F02B50110D0A0EF324E16EB0
:100D3000010EF420E26E100EDBCFE3FFE806FCE2CA
:100D4000000E0001746F000E0001746F0DD00001E1
:100D50007451010DB10EF324D96E000EF420DA6E39
:100D6000000EDF6E0001742B0001B6510001745DAE
:100D7000D8A0EDD7000E0001746F0DD000017451A2
:100D8000010DB70EF324D96E000EF420DA6E000EBA
:100D9000DF6E0001742B0001C1510001745DD8A009
:100DA000EDD7000E0001B66F000E0001C16F2A06DC
:100DB0002B2A2A50D8A404D0060E01013E6F12003F
:100DC000040E01013E6F12000001C151010DB70E6A
:100DD000F324D96E000EF420DA6E75C0DFFF000137
:100DE000C12B320E0001C1651200000E0001C16F5F
:100DF0001200240E00017519D8A409D0F3EC0DF0EF
:100E0000000E01013E6F010E0001CE6F12000001C5
:100E10007551D00F01013D6F1200000E01013E6FB0
:100E2000120001013E51000AD8B4AFD6010AD8B46D
:100E3000CFD6030AD8B4F5D6010AD8B41BD7070A0F
:100E4000D8B436D7010AD8B45CD7030AD8B4D1D7FE
:100E5000E4D7960E00019C6F000E00019D6F15D126
:100E6000250E0001A219D8B405D00001A251EAEC68
:100E700010F00BD1000E00019F6F08D000019F8F72
:100E800028D00001A251EAEC10F0FFD093C098F0F6
:100E900094C099F095C09AF00001932B000E942312
:100EA000952398C0F6FF99C0F7FF9AC0F8FF080095
:100EB000F5CFA2F00001A251000AD8B41200640AD2
:100EC000D8B407D00D0AD8B404D0110AD8B4D6D7F4
:100ED000D8D700019FBF19D09CC0D9FF9DC0DAFFB1
:100EE000DECFA0F0DDCFA1F0020E00019C27000EA6
:100EF0009D230001A1AF53D0030E00019F130001F9
:100F0000A06DA11FD8B0A12B4AD09CC0D9FF9DC015
:100F1000DAFFDECFA0F0DDCFA1F0020E00019C27AA
:100F2000000E9D233CD0010E0001A26F050E0001B2
:100F3000A219D8B43DD00001A251020D010EF32434
:100F4000F66E080EF420F76E0900F5500001A05D62
:100F50000900F5500001A159D8A02AD00001A22B08
:100F6000E5D7010E0001A26F040E0001A219D8B44A
:100F70001FD00001A251020D0B0EF324F66E080ED5
:100F8000F420F76E0900F5500001A05D0900F5504E
:100F90000001A159D8A00CD00001A22BE5D7000177
:100FA0009F51800B000AD8B4BED7800AD8B4D9D7D5
:100FB0009FC098F0030E00019817D8B403D02D0EEF
:100FC000EAEC10F0A2C09EF05AD000019E51020D32
:100FD000010EF324F66E080EF420F76E0900F5CF2B
:100FE00089F00A00F5CF8AF0A0C087F0A1C088F090
:100FF000B7EC0DF087C08EF088C08FF0000E0001B6
:10100000916F0A0E906FC7EC0EF000018E51300FF9
:101010000001A26F30D0A0C087F0A1C088F000010D
:101020009E51020D0B0EF324F66E080EF420F76E9F
:101030000900F5CF89F00A00F5CF8AF0B7EC0DF082
:10104000000187510F0B00019B6F00019B51010DA7
:10105000130EF324F66E080EF420F76E0800F5CF99
:10106000A2F009D000019F51800B000AD8B4ADD77F
:10107000800AD8B4D0D70001A251EAEC10F00001E8
:101080009E0700019E29D8A4EDD793C098F094C084
:1010900099F095C09AF00001932B000E94239523AC
:1010A00098C0F6FF99C0F7FF9AC0F8FF0800F5CF87
:1010B000A2F00001A251D8B41200D2D6670E0001EE
:1010C0006D6F000E00016E6F14D1250E00017319B3
:1010D000D8B405D00001735100EC11F00AD1000E14
:1010E0000001706F08D00001708F28D0000173518B
:1010F00000EC11F0FED064C069F065C06AF066C013
:101100006BF00001642B000E6523662369C0F6FFB7
:101110006AC0F7FF6BC0F8FF0800F5CF73F000015D
:101120007351000AD8B41200640AD8B407D00D0A6B
:10113000D8B404D0110AD8B4D6D7D8D7000170BF1C
:1011400019D06DC0D9FF6EC0DAFFDECF71F0DDCFF0
:1011500072F0020E00016D27000E6E23000172AFC7
:1011600053D0030E000170130001716D721FD8B0CF
:10117000722B4AD06DC0D9FF6EC0DAFFDECF71F09E
:10118000DDCF72F0020E00016D27000E6E233CD001
:10119000010E0001736F050E00017319D8B43DD024
:1011A00000017351020D010EF324F66E080EF420B7
:1011B000F76E0900F5500001715D0900F55000015E
:1011C0007259D8A02AD00001732BE5D7010E000177
:1011D000736F040E00017319D8B41FD0000173514E
:1011E000020D0B0EF324F66E080EF420F76E0900C4
:1011F000F5500001715D0900F55000017259D8A049
:101200000CD00001732BE5D700017051800B000A50
:10121000D8B4BED7800AD8B4D9D770C069F0030E4D
:1012200000016917D8B403D02D0E00EC11F073C083
:101230006FF059D000016F51020D010EF324F66ECC
:10124000080EF420F76E0900F5CF1CF00A00F5CF68
:101250001DF071C01AF072C01BF0AFEC0FF01AC095
:1012600060F01BC061F0000E0001636F0A0E626F38
:1012700055EC0FF000016051300F0001736F2FD05B
:1012800071C01AF072C01BF000016F51020D0B0EFD
:10129000F324F66E080EF420F76E0900F5CF1CF06B
:1012A0000A00F5CF1DF0AFEC0FF01A500F0B000144
:1012B0006C6F00016C51010D130EF324F66E080ED5
:1012C000F420F76E0800F5CF73F009D000017051DB
:1012D000800B000AD8B4AED7800AD8B4D1D70001A9
:1012E000735100EC11F000016F0700016F29D8A4C1
:1012F000EDD764C069F065C06AF066C06BF00001AC
:10130000642B000E6523662369C0F6FF6AC0F7FFF1
:101310006BC0F8FF0800F5CF73F000017351D8B42B
:101320001200D3D6000E0001906F00018EAF0CD0DA
:1013300000018E1F8D1F8C1F8B6D000E8C238D2343
:101340008E23010E0001906F00018AAF0CD00001C6
:101350008A1F891F881F876D000E882389238A238F
:10136000010E0001901B000E0001916F000E926FA4
:10137000000E936F000E946F00018B5100018C11D1
:1013800000018D1100018E11D8B442D0010E000170
:101390008F6F08D00001D8908B378C378D378E3700
:1013A00000018F2B00018EAFF5D70001D890913747
:1013B00092379337943700018B510001875D00010C
:1013C0008C510001885900018D510001895900019B
:1013D0008E5100018A59D8A012D000018B51000112
:1013E000875F00018C510001885B00018D51000175
:1013F000895B00018E5100018A5B0001918100012F
:10140000D8908E338D338C338B3300018F2FCDD713
:10141000000190510001D8B409D00001941F931F1E
:10142000921F916D000E92239323942391C087F015
:1014300092C088F093C089F094C08AF012003FC037
:1014400093F040C094F0000193519411D8A4000E81
:10145000956F29EC07F0D7C093F0D8C094F0000145
:1014600093519411D8A4000E956F29EC07F0D4C0C5
:1014700093F0D5C094F0D6C095F029EC07F0650E36
:101480000001936F080E0001946F000193519411B5
:10149000D8A4000E956F29EC07F0A3C093F0A4C068
:1014A00094F0000193519411D8A4000E956F29EC8B
:1014B00007F0650E0001936F080E0001946F0001A4
:1014C00093519411D8A4000E956F29EC07F04D0E9E
:1014D0000001936F080E0001946F00019351941165
:1014E000D8A4000E956FA5C096F0A6C097F029EC81
:1014F00007F041C093F042C094F000019351941161
:10150000D8A4000E956F29EC07F0100E0001A76F0C
:10151000940EE82EFED7A72FFCD700F012002CC0A7
:1015200006F0FF0E076E000E086E062A03D0083480
:1015300008320732062EFBD73750096E0A6A075069
:10154000095C0A50800A0B6E0850800A0B58D8A01C
:1015500002D0000E376E3750D8B438D04AD0000EC3
:10156000036E000E046EFF0E93EC10F0010E2CD0F3
:10157000FF0E036E000E046EFF0E93EC10F0020ED1
:1015800023D0FF0E036E000E046E000E93EC10F0DD
:10159000030E1AD0FF0E036EFF0E046E000E93ECC6
:1015A00010F0040E11D0000E036EFF0E046E000E3C
:1015B00093EC10F0050E08D0000E036EFF0E046EC3
:1015C000FF0E93EC10F0000E366E13D03650000A6A
:1015D000D8B4C5D7010AD8B4CBD7030AD8B4D1D769
:1015E000010AD8B4D7D7070AD8B4DDD7010AD8B4CE
:1015F000E3D7372A12003FC093F040C094F00001B7
:1016000093519411D8A4000E956F29EC07F0D7C020
:1016100093F0D8C094F0000193519411D8A4000E17
:10162000956F29EC07F0D4C093F0D5C094F0D6C0E4
:1016300095F029EC07F0650E0001936F080E00018C
:10164000946F000193519411D8A4000E956F29EC6A
:1016500007F0A3C093F0A4C094F00001935194113B
:10166000D8A4000E956F29EC07F0650E0001936F6A
:10167000080E0001946F000193519411D8A4000E3C
:10168000956F29EC07F0A5C093F0A6C094F0000177
:1016900093519411D8A4000E956F29EC07F041C026
:1016A00093F042C094F0000193519411D8A4000E1D
:1016B000956F29EC07F0100E0001A76F940EE82E2D
:1016C000FED7A72FFCD700F01200949C948E95C0F3
:1016D000D4F096C0D5F00001D451D511D8A4000E95
:1016E000D66F000E0001CE6F000E5DEC10F0AC9CCA
:1016F000AC98AC94AB9CB89AB898B89697C08BF05D
:1017000098C08CF000018D6B8E6B000E0001876F0E
:101710006C0E886FDC0E896F020E8A6F92EC09F0F6
:1017200087C09AF088C09BF089C09CF08AC09DF069
:101730009AC087F09BC088F09CC089F09DC08AF059
:10174000400E00018B6F000E8C6F000E8D6F000E2F
:101750008E6F92EC09F000018705AF6E0001995180
:101760000001D8B41200D08EF28EF28C9E9A9F9A0D
:101770009D8A12002CC006F0FF0E076E000E086E48
:10178000062A03D0083408320732062EFBD734501D
:10179000096E0A6A0750095C0A50800A0B6E0850ED
:1017A000800A0B58D8A002D0000E346E3450D8B442
:1017B00026D032D0000E036E000E046EFF0E93ECA6
:1017C00010F0010E1AD0FF0E036E000E046E000E14
:1017D00093EC10F0020E11D0000E036EFF0E046E9B
:1017E000000E93EC10F0030E08D0FF0E036EFF0EF8
:1017F000046EFF0E93EC10F0000E336E0DD03350DC
:10180000000AD8B4D7D7010AD8B4DDD7030AD8B4B0
:10181000E3D7010AD8B4E9D7342A12000001886F4F
:10182000000E82EC10F0D58CD59AD58621D0D590BB
:10183000D592D59438D0D550F80B010913D0D55096
:10184000F80B02090FD0D550F80B03090BD0D55077
:10185000F80B040907D0D550F80B050903D0D55073
:10186000F80B0609D56E1FD0D580D582D5841BD044
:1018700000018851000AD8B4F7D7020AD8B4D7D7E4
:10188000060AD8B4D8D70C0AD8B4D9D7180AD8B40D
:10189000DAD7300AD8B4DBD7600AD8B4DCD7C00AAC
:1018A000D8B4DDD7C4D7000ED66E000ED76ED08E5A
:1018B000F28EF28CF29AF294F184120096EC0EF011
:1018C000D0C08CF0CFC08DF00001D151C3EC10F02E
:1018D0000001CE51D8B4FCD7000E0001CE6F1AEC37
:1018E00011F00001B06F0001B005D8A410D0D8EC01
:1018F0000FF0E9CFD9FFEACFDAFF00EEA8F0050E2E
:10190000DBCFEBFFE806FCE234EC04F0E1D7010E9C
:101910000001B065DDD7000E0001AF6F13D00001EC
:10192000AF5127EC0FF0E9CFD9FFEACFDAFF00EE95
:10193000A8F0050EDBCFEBFFE806FCE234EC04F088
:101940000001AF2B0001B0510001AF5DD8B0C0D78E
:10195000E6D7036E03500008016E070E0126CDC0C6
:1019600002F0012A02D0D8900232012EFCD7025098
:101970000001CC5DD8A002D0819401D081840350B5
:101980000008016E070E0126CBC002F0012A02D02A
:10199000D8900232012EFCD702500001CA5DD8A0B7
:1019A00002D0819601D0818603500008016E070E97
:1019B0000126C9C002F0012A02D0D8900232012EBD
:1019C000FCD702500001C85DD8A002D0819201D09E
:1019D00081820001CC2B0001CA2B0001C82B120010
:1019E0002F50D8B439D0000E2F6EF70E316402D0CC
:1019F000000E326E080E316002D0010E326EF70E0C
:101A0000446402D0000E306E080E446002D0010E15
:101A1000306EF70E436402D0000E2E6E080E436047
:101A200002D0010E2E6E3250D8B403D02C283126AD
:101A300002D02C28315E3050D8B403D02C28442654
:101A400002D02C28445E2E50D8B403D02C28432634
:101A500005D02C28435E02D0010E2F6E44C003F047
:101A600043C004F0315093EC10F012000600FACF9E
:101A70000CF0FBCF0DF0E9CF0EF0EACF0FF0E1CF85
:101A800010F0E2CF11F0D9CF12F0DACF13F0F3CF8C
:101A900014F0F4CF15F0F6CF16F0F7CF17F0F8CF1B
:101AA00018F0F5CF19F0F2A407D0000ED66E000E94
:101AB000D76EF2942AEC0EF019C0F5FF18C0F8FFAB
:101AC00017C0F7FF16C0F6FF15C0F4FF14C0F3FFF0
:101AD00013C0DAFF12C0D9FF11C0E2FF10C0E1FF4E
:101AE0000FC0EAFF0EC0E9FF0DC0FBFF0CC0FAFFFC
:101AF000459211002C50066E076A060ED8900636E5
:101B00000736E82EFBD7010E0626000E07223850B6
:101B1000086E096A0650085C0950800A0A6E075070
:101B2000800A0A58D8B018D0020E3A6008D0FF0ECA
:101B3000036EFF0E046EFF0E93EC10F007D0000E44
:101B4000036E000E046E000E93EC10F03A2A130E92
:101B50003A6402D0000E3A6E2CC006F0060E076EF4
:101B6000D8900636072EFCD7062838261200000E1D
:101B700000018C6F000E8B6F0001895100018A11EA
:101B8000D8B42CD0010E00018D6F06D00001D89082
:101B900089378A3700018D2B00018AAFF7D7000102
:101BA000D8908B378C37000189510001875D000187
:101BB0008A5100018859D8A00AD00001895100013A
:101BC000875F00018A510001885B00018B81000161
:101BD000D8908A33893300018D2FE1D78BC087F0ED
:101BE0008CC088F012003FC064F040C065F0000176
:101BF00064516511D8A4000E666F5EEC08F03BC01E
:101C000064F03CC065F0000164516511D8A4000E79
:101C1000666F5EEC08F0500E0001646F080E000164
:101C2000656F000164516511D8A4000E666F3DC157
:101C300067F00001686B5EEC08F041C064F042C0E0
:101C400065F0000164516511D8A4000E666F5EEC6A
:101C500008F0120024D02C50A9EC0CF030D03550F4
:101C6000D8B4BAEC0BF0070EA9EC0CF028D0355024
:101C7000D8B47AEC0DF0070EA9EC0CF020D035505A
:101C8000D8B4F0EC0CF0070EA9EC0CF018D03550DD
:101C9000D8B48FEC0AF0070EA9EC0CF010D02D5040
:101CA000000AD8B4D8D7010AD8B4D9D7030AD8B40F
:101CB000DED7010AD8B4E3D7070AD8B4E8D7352A63
:101CC0001200420EF66E220EF76E000EF86E09003C
:101CD000F5CFD7F00900F5CFD8F0E20EF66E210E61
:101CE000F76E000EF86E00EE3BF010EE0AF0090001
:101CF000F5CFEEFFE550E150FAE101EE00F03F0EC6
:101D0000EE6AE806FDE100EEB1F0230EEE6AE806A9
:101D1000FDE100EE22F0190EEE6AE806FDE14590C5
:101D20004592000EF86E00015EEF0CF0B4EC10F07E
:101D3000590E0001956F080E0001966F4B0E0001C1
:101D4000986F000E976F010E0001996F65EC0BF014
:101D5000010E5DEC10F0FDEC0FF0010EE3EC10F065
:101D60000001D169000E0001D06F000E0001CF6F9D
:101D7000570E0001A36F080E0001A46F240E00018E
:101D8000A56F080E0001A66FFBEC0AF0120000011F
:101D9000905100019111D8B426D0010E0001926F2C
:101DA00006D00001D890903791370001922B0001A6
:101DB00091AFF7D70001905100018E5D0001915164
:101DC00000018F59D8A008D00001905100018E5F0A
:101DD0000001915100018F5B0001D8909133903345
:101DE0000001922FE7D78EC08EF08FC08FF01200C7
:101DF000000E00018B6F000E0001896F000E0001C4
:101E00008A6F1BD087C0D9FF88C0DAFFDF50D00FA0
:101E10000001896F00018A510001D8B405D00A0E73
:101E200000018B03F3508B6F0001895100018B2758
:101E300000018A2B0001874B882B87C0D9FF88C0FF
:101E4000DAFFDF50D8A4DED700018B511200000169
:101E50008E6F00018E51110D0A0EF324D96E010E02
:101E6000F420DA6E10EE8FF0100EDBCFE3FFE80601
:101E7000FCE2040E0001C26F010E0001C36F8F0E61
:101E80000001C46F000E0001C56F950E0001C66F02
:101E9000000E0001C76F20EEC2F000EE87F0050EC5
:101EA000DBCFEBFFE806FCE212000001625100010B
:101EB0006311D8B423D0010E216E05D00001D89053
:101EC00062376337212A000163AFF8D700016251FE
:101ED0000001605D0001635100016159D8A008D084
:101EE000000162510001605F000163510001615B0C
:101EF0000001D89063336233212EE8D760C060F0D0
:101F000061C061F0120006D00001874B882B0001F0
:101F1000894B8A2B87C0D9FF88C0DAFFDF500001C8
:101F20008B6F89C0F6FF8AC0F7FF0800F5500008E4
:101F300000018B2500018C6F00018C51D8A407D0C3
:101F400087C0D9FF88C0DAFFDF50D8A4DDD70001F1
:101F50008C510001876F886B87BF88071200000EC5
:101F6000206E000E1F6E1C501D10D8B41CD0010E28
:101F70001E6E04D0D8901C361D361E2A1DAEFAD710
:101F8000D8901F3620361C501A5C1D501B58D8A004
:101F900005D01C501A5E1D501B5A1F80D8901D3250
:101FA0001C321E2EEDD71FC01AF020C01BF01200ED
:101FB00021EE0AF010EE8DF0100EDBCFE3FFE80605
:101FC000FCE2040E0001C26F010E0001C36F8D0E12
:101FD0000001C46F000E0001C56F930E0001C66FB3
:101FE000000E0001C76F20EEC2F000EE87F0050E74
:101FF000DBCFEBFFE806FCE21200000E0001CC6F25
:102000000001CD69000E0001CA6F0001CB69000E0E
:102010000001C86F0001C969000E2C6E000E2D6E04
:10202000000E0EEC0CF0000E82EC10F093909392E8
:10203000939412000001886F09D087C0CDF0120080
:1020400087C0CBF0120087C0C9F012000001885190
:10205000000AD8B4F2D7010AD8B4F2D7030AD8A438
:102060001200F1D7026E09D001C0CDF0120001C0FC
:10207000CBF0120001C0C9F012000250000AD8B41F
:10208000F3D7010AD8B4F3D7030AD8A41200F2D7C1
:10209000ABA404D0AECF1BF0000E1200ABA20BD04D
:1020A000000EA4EC10F0280EE82EFED7010EA4ECD2
:1020B00010F0000E1200AE5012000001876F0001F8
:1020C00087510001D8B406D0949C948EAC8AAB881A
:1020D000AB8E1200949C949EAC9AAB98AB9E12006F
:1020E00000018B6F8BC087F0000E1AEC10F089C0D6
:1020F00087F0010E1AEC10F08AC087F0020E1AEC7D
:1021000010F012000001876F000187510001D8B460
:1021100005D0D58EF28A000E286E1200D59EF29A56
:10212000000E286E1200056E05C001F0000E32ECA4
:1021300010F003C001F0010E32EC10F004C001F009
:10214000020E32EC10F012001A6E1A50D8B406D0FB
:10215000949C948EAC8AAB88AB8E1200949C949E17
:10216000AC9AAB98AB9E1200000E926E000E806E81
:10217000000E936E000E816E000E946E000E826E45
:102180000F0EC16E120000018E6F8CC089F08DC0E1
:102190008AF000018E5170EC10F0000E2D6E1200CE
:1021A0000001886F010E5DEC10F0ACA2FED788C074
:1021B000ADFF12001B6E010EA4EC10F0ACA2FED716
:1021C0001BC0ADFF12000001886F0001885182EC36
:1021D00010F012000001896F00018951D0EC10F05D
:1021E00012003508390863086108FF80070E2C606B
:1021F00012002C2A12002C50D8B412002C06120007
:102200001C6E1C50DAEC10F01200020E2D6E120043
:10221000040E2D6E12000001CC5112000001CA51B3
:1022200012000001C8511200010E2D6E1200030EA3
:102230002D6E12000101035112002D5012002C507E
:0422400012003D0843
:020000040020DA
:08000000FFFFFFFFFFFFFFFF00
:020000040030CA
:0E000000030E1F1EFF8080FF0FC00FE00F4099
:00000001FF
